:100000000C9407010C94851C0C94B61C0C94E71CF2
:100010000C94181D0C94491D0C947A1D0C94AB1D66
:100020000C94DC1D0C9436010C9436010C943601B2
:100030000C940D1E0C9436010C9436010C94691E20
:100040000C9436010C9436010C9436010C94360154
:100050000C9436010C9436010C9436010C94441E19
:100060000C9436010C9453210C9436010C943601F7
:100070000C9436010C9436010C9436010C94360124
:100080000C9436010C9436010C9436010C94360114
:100090000C948E210C9436010C9436010C942F276D
:1000A0000C9436010C9436010C9436010C943601F4
:1000B0000C9436010C9436010C9436010C943601E4
:1000C0000C9436010C9436010C94360107634236C9
:1000D000B79BD8A71A39685618AEBAAB558C1D3CD9
:1000E000B7CC5763BD6DEDFD753EF6177231BF009D
:1000F0000000803F08000000BE922449123EABAAD7
:10010000AA2ABECDCCCC4C3E00000080BEABAAAA31
:10011000AA3E00000000BF000000803F0000000079
:1001200000084178D3BB4387D1133D190E3CC3BDB2
:100130004282AD2B3E68EC8276BED98FE1A93E4C5F
:1001400080EFFFBE01C4FF7F3F0000000000000001
:10015000080900000000000000000000000000008E
:10016000000000000000000000000000000000008F
:10017000000000000000000000000000000000007F
:1001800000010208101020408004081020400202E4
:100190000408102040800102802040042001010258
:1001A00004081020014080408001020804088004F7
:1001B0001004020105050505030303030101010401
:1001C00004030606060606060606010405010501E7
:1001D00003020202020202010202050504040304F2
:1001E0000401030407070700202326292C2F3200CF
:1001F0002225282B2E3134002124272A2D303300AC
:10020000361C811C35259226962699269C2611247B
:100210001FBECFEFD1E2DEBFCDBF15E0A0E0B2E060
:10022000ECE9F1E600E00BBF02C007900D92AA31A5
:10023000B107D9F710E1AAE1B5E001C01D92A133E1
:10024000B107E1F712E0CEE0D2E000E006C022976D
:100250000109FE010BBF0E941C2DC030D10780E0B8
:100260000807A9F70E94DB210C94CC300C94000005
:10027000CF92DF92EF92FF920F931F93CF93DF9372
:100280008CEE95E00E943315C1E0811101C0C0E001
:1002900085E090E09093EB058093EA051BE0809168
:1002A000EA059091EB05892B21F0115009F0B7C0B8
:1002B000C1E085E090E09093EB058093EA051BE0B8
:1002C0008091EA059091EB05892B21F0115009F0FE
:1002D000B2C0C1E085E090E09093EB058093EA0521
:1002E0001BE08091EA059091EB05892B21F01150DC
:1002F00009F0AEC0C1E085E090E09093EB058093FB
:10030000EA051BE08091EA059091EB05892B21F02D
:10031000115009F0A6C0C1E060E074E088ED99E0FA
:100320000E94D022182F61E074E088ED99E00E94CD
:10033000D022082F62E074E088ED99E00E94D0227C
:10034000D82F63E074E088ED99E00E94D022C82E97
:10035000D12CE12CF12CFC2CEE24DD24CC24C10E7C
:10036000D11CE11CF11C10E020E030E0322F212FE5
:10037000102F0027C00ED11EE21EF31E4D2F50E09D
:1003800060E070E0BA0155274427C40ED51EE61E72
:10039000F71E85E090E09093EB058093EA051BE063
:1003A0008091EA059091EB05892B21F0115009F01D
:1003B0006BC0C1E085E090E09093EB058093EA0587
:1003C0001BE08091EA059091EB05892B21F01150FB
:1003D00009F068C0C1E085E090E09093EB05809360
:1003E000EA051BE08091EA059091EB05892B21F04D
:1003F000115009F06BC0C1E085E090E09093EB05EF
:100400008093EA051BE08091EA059091EB05892B2A
:1004100009F47FC0115009F06CC0C1E07AC08CEEC5
:1004200095E00E94340F992787FD90959093EB05F6
:100430008093EA0534CF6DE48CEE95E00E9477134B
:10044000992787FD90959093EB058093EA0538CF27
:100450008CEE95E00E947C0F8093EA051092EB05EC
:1004600040CF64E074E088ED99E00E94D022682FCC
:100470008CEE95E00E941014992787FD909590933B
:10048000EB058093EA053ECFB701A6018CEE95E01F
:100490000E94FE12992787FD90959093EB0580931B
:1004A000EA057ECF65E074E088ED99E00E94D022F5
:1004B000682F70E08CEE95E00E94DE10992787FD92
:1004C00090959093EB058093EA057BCF66E074E00E
:1004D00088ED99E00E94D022682F8CEE95E00E9472
:1004E0009611992787FD90959093EB058093EA05E7
:1004F00079CF67E074E088ED99E00E94D022682F00
:100500008CEE95E00E94E40F8093EA051092EB05D3
:100510007ACF8C2FDF91CF911F910F91FF90EF90A9
:10052000DF90CF900895CF938CEE95E00E94331525
:1005300080931C0564E670E080E090E00E94E01E7D
:1005400040E060E076E980E090E00E94662060E0B4
:1005500074E088ED99E00E94D0228F3F01F564E0BD
:1005600074E088ED99E00E94D0228F3FC1F465E0ED
:1005700074E088ED99E00E94D0228F3F81F466E01C
:1005800074E088ED99E00E94D0228F3F41F467E04B
:1005900074E088ED99E00E94D0228F3F21F0C6E000
:1005A000C150F1F539C043E360E074E088ED99E0B3
:1005B0000E94D32243E761E074E088ED99E00E9455
:1005C000D32248ED62E074E088ED99E00E94D322E6
:1005D00040E063E074E088ED99E00E94D32241E0BE
:1005E00064E074E088ED99E00E94D32240E065E089
:1005F00074E088ED99E00E94D32241E066E074E067
:1006000088ED99E00E94D3224CE067E074E088ED29
:1006100099E00E94D322C3CF80E0CF910C943F2178
:100620000E9438018823C1F3BBCFFF920F931F9321
:10063000CF93DF93CDB7DEB7CB5ED1090FB6F89479
:10064000DEBF0FBECDBFFE01EF57FF4F84E6DF01D7
:100650001D928A95E9F7E6E8F5E09F0126583540B6
:1006600081918332D1F72F5F3F4FFE01EB51FF4F56
:1006700080E090E00AC0552747FD5095405351094E
:10068000419351932F5F3F4F0196D901AA57BA4F1B
:100690004C91433281F78130910539F4CB51DF4FD2
:1006A00008811981C55ED0403DC08230910599F422
:1006B000CB51DF4F88819981C55ED0404AE0489F89
:1006C0008001499F100D1124C951DF4F8881998104
:1006D000C75ED04022C0039719F5CB51DF4F888108
:1006E0009981C55ED04044E6489F8001499F100D26
:1006F0001124C951DF4F48815981C75ED0406AE05B
:10070000649FC001659F900D1124080F191FC751E8
:10071000DF4F88819981C95ED040080F191F02C040
:1007200000E010E02F5F3F4FD901AA57BA4F8C91DC
:100730008332C1F7FE01319680E090E0AD0102C046
:10074000F19201969A01280F391FD9011196FC9058
:10075000BDE0FB12F5CFE1E0F0E0EC0FFD1FE80F8C
:10076000F91F108264E670E080E090E00E94E01ED5
:1007700060E08CE092E00E94CB21AE014F5F5F4FC2
:10078000602F8CEE95E00E94F11B482F811114C060
:100790001F928AE08F931F92FF9289E192E09F93CC
:1007A0008F938E010F571F4F1F930F930E94CC2DD5
:1007B00081E0F801808335C08130E9F41F928AE03E
:1007C0008F931F92FF9226E232E03F932F938E0188
:1007D0000F571F4F1F930F93C551DF4F4883CB5EB9
:1007E000D0400E94CC2DC551DF4F4881CB5ED04018
:1007F000D8014C9315C0823019F51F928AE08F936F
:100800001F92FF9282E492E09F938F938E010F5785
:100810001F4F1F930F930E94CC2D81E0D8018C9322
:10082000F80101900020E9F7319784E0808360E0CF
:10083000C8010E94CB210FB6F894DEBF0FBECDBF1A
:10084000C551DF4F0FB6F894DEBF0FBECDBFDF91AD
:10085000CF911F910F91FF900895AC01FC012FEFF4
:100860003FEF15C08191992787FD9095282739275B
:1008700088E090E0D901B695A79520FF05C021E05A
:1008800030EA2A273B2701C09D01019799F7CF0144
:10089000841B950B861797072CF3C90108955F9267
:1008A0006F927F928F929F92AF92BF92CF92DF9280
:1008B000EF92FF920F931F93CF93DF93CDB7DEB7E5
:1008C000C153D1400FB6F894DEBF0FBECDBF86E94D
:1008D000FE013196DF01282F1D922A95E9F7FE01CE
:1008E000E956FF4FDF011D928A95E9F726E0822E37
:1008F000912CB1E08B1A910809F0B5C106C104E64C
:1009000012E03BC00EE612E038C008E712E035C046
:1009100002E812E032C00CE812E02FC006E912E053
:100920002CC000EA12E029C00AEA12E026C004EB5B
:1009300012E023C00EEB12E020C008EC12E01DC054
:1009400002ED12E01AC00CED12E017C006EE12E044
:1009500014C000EF12E011C00AEF12E00EC004E074
:1009600013E00BC00EE013E008C008E113E005C07F
:1009700002E213E002C00AE512E096E0892E912C13
:10098000E1E08E1A910809F088C17CC183E3C82E8A
:1009900083E0D82E09C0BAE3CB2EB3E0DB2E04C02F
:1009A000ACE2CA2EA3E0DA2EF6E08F2E912CF1E015
:1009B0008F1A910809F089C177C1E6E4EE2EE3E0D1
:1009C000FE2E0EC07BE4E72E73E0F72E09C060E533
:1009D000E62E63E0F62E04C051E4E52E53E0F52E3A
:1009E00046E0842E912C21E0821A910809F08CC1F6
:1009F00073C13AE5A32E33E0B32E1DC02FE5A22E1E
:100A000023E0B22E18C094E6A92E93E0B92E13C0AD
:100A100089E6A82E83E0B82E0EC0BFE6AB2EB3E069
:100A2000BB2E09C0A5E7AA2EA3E0BA2E04C0F5E5A7
:100A3000AF2EF3E0BF2EE6E08E2E912C81E0881AD7
:100A4000910809F06EC167C191E0891A910809F017
:100A500075C16EC1A1E08A1A910809F076C17BC107
:100A6000B1E08B1A910809F07CC181C1CF92DF926D
:100A70008BE793E00FC0E230F10529F4CF92DF92CB
:100A80008CE793E007C0E330F10539F4CF92DF92B1
:100A90008DE793E09F938F9306C0349771F4CF92C4
:100AA000DF92FF92EF921F930F930E94CC2D0F9035
:100AB0000F900F900F900F900F90CE01835D9E4F7F
:100AC0009F938F93CE0189569F4F9F938F9381E879
:100AD00093E09F938F938E010F5F1F4F1F930F9390
:100AE0000E94CC2D81E08983F80101900020E9F774
:100AF000319784E0808360E0C8010E94CB210FB66B
:100B0000F894DEBF0FBECDBF90C18091F0059091EB
:100B1000F105A091F205B091F3058939F9ED9F0730
:100B2000F2EEAF07B10509F405CF08F04DC08939E1
:100B3000E9E99E07E8EDAE07B10509F4E9CEF8F45E
:100B4000811520E6920728EDA207B10509F4D7CE5A
:100B500038F48C3C9C44A84DB10509F00ECF0BCF66
:100B6000833323E7920728EDA207B10509F4CACE23
:100B700086369648A84DB10509F0FFCEC6CE00973F
:100B8000F9EDAF07B10509F4CCCE78F48C3CECEA72
:100B90009E07E8EDAE07B10509F4BDCE8115904C76
:100BA000A84DB10509F0E9CEB9CE8E3125EC9207FA
:100BB00021EEA207B10509F4B7CE8C359F44A24EB1
:100BC000B10509F0DACEB3CE8F38F2E09F07F5EE2B
:100BD000AF07B10509F4BACEF8F48431EEEE9E0702
:100BE000E3EEAE07B10509F4ABCE38F4873D93468A
:100BF000A34EB10509F0C1CEA0CE8135E8E79E072E
:100C0000E4EEAE07B10509F49ECE8115904CA44EDA
:100C1000B10509F0B2CEACCE873421EA920726EEB8
:100C2000A207B10509F49BCE78F48C3CFCE89F0741
:100C3000F5EEAF07B10509F48CCE8A309741A64E88
:100C4000B10509F09ACE88CE8538EBE29E07E7EE33
:100C5000AE07B10509F486CE823C954BA74EB1058F
:100C600009F08BCE82CE8CEE95E00E94C612782ED3
:100C700064E670E080E090E00E94E01E772009F4D6
:100C800044CF37CE8091ED05813009F47FCE08F452
:100C900087CE823009F088CE7ECE8CEE95E00E9421
:100CA000C90F882379F36CCE8091EE05823009F468
:100CB00084CE20F4813009F093CE8ECE833009F4B7
:100CC00081CE843009F08CCE82CE8CEE95E00E94ED
:100CD0007811882349F36BCE8091EF05893009F4B0
:100CE00092CE48F4873009F484CE08F087CE86305F
:100CF00009F0A1CE9CCE8B3009F48FCE08F488CEBB
:100D00008C3009F098CE8ECE8CEE95E00E94AD0F1F
:100D1000882311F368CE7090FD0576E0872E912C24
:100D200093CE8CEE95E00E94F0138823A1F386CE3B
:100D30006090F50566E0862E912C8CCE8CEE95E0C9
:100D40000E9443148823A1F37FCE8CEE95E00E948D
:100D5000661481117FCE5090F60556E0852E912CB9
:100D60007FCE8CEE95E00E94A114811179CE89E8A6
:100D700093E09F938F932091F705822F992787FD0A
:100D800090959F932F93852D992787FD90959F93FD
:100D90005F92862D992787FD90959F936F92BF92C2
:100DA000AF92FF92EF92DF92CF921F927F921F93AA
:100DB0000F938EE893E09F938F931F9286E98F9312
:100DC0008E0109561F4F1F930F930E948F2DD8013C
:100DD0000D900020E9F7BD0161507109601B710B96
:100DE000C8010E942D04D82EC92E9F938F934EE7E1
:100DF000E42E43E0F42EFF92EF928E01035D1E4F2E
:100E00001F930F930E94CC2DF80101900020E9F769
:100E10003197E01BF10B0FB6F894DEBF0FBECDBFCC
:100E2000E130F10509F027CE21CECF5CDE4F0FB6C1
:100E3000F894DEBF0FBECDBFDF91CF911F910F9110
:100E4000FF90EF90DF90CF90BF90AF909F908F90EA
:100E50007F906F905F9008958F929F92AF92BF9214
:100E6000CF92DF92EF92FF920F931F93CF93DF9376
:100E7000CDB7DEB7CB5ED1090FB6F894DEBF0FBE9B
:100E8000CDBFE6E8F5E0CF018658954021912634A4
:100E9000D1F701C00196FC01EA57FA4F20812235B3
:100EA000C9F701C00196FC01EA57FA4F20812534A9
:100EB000C9F701C00196FC01EA57FA4F208123349B
:100EC000C9F7FC01EA57FA4F208101962A33C9F786
:100ED000FE01E753FF4F2AE0DF011D922A95E9F753
:100EE00002C021930196DC01AA57BA4F2C912B33F3
:100EF000C1F701C00196FC01EA57FA4F2081213465
:100F0000C9F701C00196FC01EA57FA4F2081243449
:100F1000C9F701C00196FC01EA57FA4F2081243439
:100F2000C9F701C00196FC01EA57FA4F208122352A
:100F3000C9F7FC01EA57FA4F208101962A33C9F715
:100F40009E0127513F4FF90103C050535193019621
:100F50004E2F421BDC01AA57BA4F5C915B33A9F7B5
:100F6000413031F4C751DF4F0881C95ED0402FC0F6
:100F7000423089F4C751DF4F2881C95ED040C65145
:100F8000DF4F0881CA5ED04010E0BAE02B9F000D11
:100F9000111D11241CC04330D1F4C751DF4F2881EB
:100FA000C95ED040C651DF4F0881CA5ED040EAE03A
:100FB0000E9F80011124F4E62F9F000D111D1124B6
:100FC000C551DF4F2881CB5ED040020F111DFE01BD
:100FD000ED52FF4F27E0DF011D922A95E9F701C08E
:100FE0000196FC01EA57FA4F20812234C9F701C06B
:100FF0000196FC01EA57FA4F20812735C9F7FC0119
:10100000EA57FA4F208101962A33C9F7FE01ED52C3
:10101000FF4F02C021930196DC01AA57BA4F2C91D1
:101020002B33C1F7FE01E052FF4F25E0DF011D9297
:101030002A95E9F701C00196FC01EA57FA4F208191
:101040002334C9F701C00196FC01EA57FA4F208109
:101050002235C9F7FC01EA57FA4F208101962A335D
:10106000C9F7FE01E052FF4F02C021930196DC0157
:10107000AA57BA4F2C912B33C1F7FE01E652FF4F0E
:1010800026E0DF011D922A95E9F701C00196FC01D7
:10109000EA57FA4F20812335C9F701C00196FC01B8
:1010A000EA57FA4F20812634C9F7FC01EA57FA4F74
:1010B000208101962A33C9F7FE01E652FF4F02C094
:1010C00021930196DC01AA57BA4F2C912D30C1F71C
:1010D00064E672E0CE0187539F4F0E947F2D0097F8
:1010E00041F0BCECCB2EBCE4DB2EB8EDEB2EF12CAA
:1010F00006C0C12CA0E6DA2EA8EDEA2EF12C6EE691
:1011000072E0CE0187539F4F0E947F2D009739F4E4
:10111000F3E3CF2EF3E7DF2EF8EDEF2EF12C68E7A7
:1011200072E0CE0187539F4F0E947F2D009739F4C4
:10113000E6E6CE2EE6E8DE2EE8EDEE2EF12C62E8B5
:1011400072E0CE0187539F4F0E947F2D009731F4AC
:1011500079E9C72EDC2C78EDE72EF12C6CE872E0F3
:10116000CE0187539F4F0E947F2D009739F46CEC7E
:10117000C62E6CEAD62E68EDE62EF12C66E972E0FA
:10118000CE0187539F4F0E947F2D009731F4C12CD1
:1011900050ECD52E58EDE52EF12C60EA72E0CE0130
:1011A00087539F4F0E947F2D009729F4C12CD12C8B
:1011B00049EDE42EF12C6AEA72E0CE0187539F4F8D
:1011C0000E947F2D009739F43EE1C32E35ECD32EDB
:1011D00031EEE32EF12C64EB72E0CE0187539F4F8A
:1011E0000E947F2D009739F42CE5C22E2FE4D22ED9
:1011F00022EEE22EF12C6EEB72E0CE0187539F4F70
:101200000E947F2D009739F499E9C92E99EDD92EC6
:1012100092EEE92EF12C68EC72E0CE0187539F4FDD
:101220000E947F2D009739F487EDC82E83E6D82ED3
:1012300083EEE82EF12C62ED72E0CE0187539F4FD2
:101240000E947F2D009739F414E1C12E1EEED12E9D
:1012500013EEE12EF12C6CED72E0CE0187539F4F1F
:101260000E947F2D009739F4B1E5CB2EB8E7DB2E35
:10127000B4EEEB2EF12C66EE72E0CE0187539F4F59
:101280000E947F2D009739F4AFE8CA2EA2E0DA2E33
:10129000A5EEEA2EF12C60EF72E0CE0187539F4F4E
:1012A0000E947F2D009739F4FCECCF2EFCE8DF2E56
:1012B000F5EEEF2EF12C6AEF72E0CE0187539F4FCF
:1012C0000E947F2D009739F4EAE0CE2EE7E1DE2E72
:1012D000E6EEEE2EF12C64E073E0CE0187539F4FD3
:1012E0000E947F2D009739F477E4C72E71EAD72E3C
:1012F00076EEE72EF12C6EE073E0CE0187539F4F20
:101300000E947F2D009739F465E8C62E6BE2D62E39
:1013100067EEE62EF12C68E173E0CE0187539F4F14
:101320000E947F2D009739F452ECC52E55EBD52E37
:1013300057EEE52EF12C62E273E0CE0187539F4F0A
:101340000E947F2D009731F4C12C40ECD42E44EE46
:10135000E42EF12C63E373E0CE018D529F4F0E9487
:101360007F2D5C016AE373E0CE018D529F4F0E9496
:101370007F2D009731F099249394AB2821F0912C84
:1013800002C032E0932E66E473E0CE0180529F4F9C
:101390000E947F2D009719F0AA24A39402C022E096
:1013A000A22E6BE473E0CE0180529F4F0E947F2DEE
:1013B000009711F493E0A92E60E573E0CE0180520E
:1013C0009F4F0E947F2D009711F484E0A82E6AE5BC
:1013D00073E0CE0186529F4F0E947F2D009719F037
:1013E00016E0B12E02C0B7E0BB2E6FE573E0CE0170
:1013F00086529F4F0E947F2D009711F4A8E0BA2ECD
:1014000064E673E0CE0186529F4F0E947F2D0097C5
:1014100011F4F9E0BF2E69E673E0CE0186529F4FCA
:101420000E947F2D009711F4EAE0BE2E6FE673E074
:10143000CE0186529F4F0E947F2D009711F47BE0D2
:10144000B72E65E773E0CE0186529F4F0E947F2D35
:10145000009711F46CE0B62E8CEE95E00E943315E7
:10146000B701A6018CEE95E00E94FE1288248394B9
:10147000811101C0812C102F602F8CEE95E00E940D
:101480001014882311F0B2E08B2A692D70E08CEEE5
:1014900095E00E94DE10882311F0E4E08E2A6A2D88
:1014A0008CEE95E00E949611882311F0F8E08F2AC7
:1014B0006B2D8CEE95E00E94E40F882319F030E14B
:1014C000832A42C0811040C04C2D60E074E088ED5A
:1014D00099E00E94D32277276F2D5E2D4D2D61E07C
:1014E00074E088ED99E00E94D322A7016627772750
:1014F00062E074E088ED99E00E94D32240E063E06E
:1015000074E088ED99E00E94D322412F64E074E0FA
:1015100088ED99E00E94D322492D65E074E088EDC2
:1015200099E00E94D3224A2D66E074E088ED99E0AC
:101530000E94D3224B2D67E074E088ED99E00E9471
:10154000D3220E944F04F3C08E010B591F4F6AED46
:1015500073E0C8010E94882D80FE10C01F930F9376
:1015600081EE93E09F938F931F930F930E94CC2D56
:101570000F900F900F900F900F900F9081FE13C05F
:10158000CE018B599F4F9F938F9327EE33E03F936C
:101590002F939F938F930E94CC2D0F900F900F90BD
:1015A0000F900F900F9082FE13C0CE018B599F4F6A
:1015B0009F938F932FEE33E03F932F939F938F93BF
:1015C0000E94CC2D0F900F900F900F900F900F90C6
:1015D00083FE13C0CE018B599F4F9F938F9325EFAE
:1015E00033E03F932F939F938F930E94CC2D0F90C6
:1015F0000F900F900F900F900F9084FE13C0CE01AC
:101600008B599F4F9F938F932BEF33E03F932F93F3
:101610009F938F930E94CC2D0F900F900F900F905F
:101620000F900F90CE018B599F4FFC01019000202D
:10163000E9F732971082DC010D900020E9F7BD0137
:1016400061507109681B790B0E942D04D82EC92E98
:101650009F938F933EE7E32E33E0F32EFF92EF92BA
:101660008E010B511F4F1F930F930E94CC2DF80139
:1016700001900020E9F73197E01B0F900F900F9039
:101680000F900F900F90E13029F4CF92DF928BE70B
:1016900093E00DC0E23029F4CF92DF928CE793E023
:1016A00006C0E33039F4CF92DF928DE793E09F9349
:1016B0008F9306C0E43071F4CF92DF92FF92EF92E5
:1016C0001F930F930E94CC2D0F900F900F900F90AF
:1016D0000F900F90CE018B519F4F9F938F931F922E
:1016E0008AE08F931F928DE08F93CE018B599F4F8D
:1016F0009F938F9381E094E09F938F938E010F5F70
:101700001F4F1F930F930E94CC2D81E08983F80116
:1017100001900020E9F7319784E0808360E0C80100
:101720000E94CB210FB6F894DEBF0FBECDBFC551CE
:10173000DF4F0FB6F894DEBF0FBECDBFDF91CF9164
:101740001F910F91FF90EF90DF90CF90BF90AF90DF
:101750009F908F9008958F929F92AF92BF92CF9259
:10176000DF92EF92FF921F93CF93DF93EC011092E1
:10177000FF050E948E1E6B017C018091070681305F
:10178000E1F562E18CEE95E00E94980E182F4E0173
:10179000A12CB12C0BC00E948E1E6B017C0180E03D
:1017A0000E94EA20181619060CF440C014FD62C00D
:1017B0000E948E1E6C197D098E099F096815790596
:1017C0008A059B05C8F15DC00E948E1E6B017C01DD
:1017D000C1110CC00E948E1E6C197D098E099F09D3
:1017E000681579058A059B05B0F107C060E08CEEAD
:1017F00095E00E94980E809301068091FF0581304C
:10180000B9F4809101069091FD05891799F088231C
:1018100089F080910706813011F441E801C041E070
:1018200061E08CEE95E00E94B20E02C082E02CC016
:1018300080E02AC081E028C062E18CEE95E00E9441
:10184000980E182F0E948E1E6C157D058E059F0523
:1018500008F0A5CFA0CF65E28CEE95E00E94980E2F
:10186000C82F0E948E1E6C157D058E059F0508F001
:10187000AFCFAACF81E08093FF054E01A12CB12C00
:10188000A9CF1092FF05B9CFDF91CF911F91FF90A3
:10189000EF90DF90CF90BF90AF909F908F90089582
:1018A000AF92BF92CF92DF92EF92FF920F931F936E
:1018B000CF93DF93CDB7DEB760970FB6F894DEBF56
:1018C0000FBECDBF80E00E943F2184E6E6E8F5E050
:1018D000DF01282F1D922A95E9F7E2E2F5E0DF010A
:1018E0001D928A95E9F710921C0585E090E090938F
:1018F000EB058093EA0510921B0510921A051092D1
:1019000021058CEE95E00E94F01590E09093EB0598
:101910008093EA0522E020930A02892B09F065C032
:1019200080E197E20E94AB0B90E09093EB058093EF
:10193000EA058130910509F03FC08CEE95E00E94E8
:101940000D18992787FD90959093EB058093EA05F4
:10195000009711F0039729F580910306813011F467
:1019600084E001C081E080930A028CEE95E00E9441
:101970005B1590E09093EB058093EA05892B71F459
:101980008CEE95E00E94EB1A90E09093EB0580932B
:10199000EA05892B19F410920A0203C081E08093B2
:1019A0000A028091EA059091EB05892B21F58CEED6
:1019B00095E00E940B1C1FC0029721F481E08093E8
:1019C000210519C080911A0590911B05803CB1E258
:1019D0009B0728F010921B0510921A050CC0019667
:1019E00090931B0580931A059BCF8CEE95E00E9487
:1019F000331580931C0580912105882309F45AC171
:101A000010921E0510921D051092200510921F05C0
:101A100080911F059091200520911D0530911E0594
:101A20008130910521F42A3D35403CF008C02C3D21
:101A3000A5E03A070CF420C1F6CF8093860501E0BB
:101A400010E0A12CB12CC12CD12CE12CF12C2BC0FD
:101A5000F801EA57FA4F80838D30910541F468010F
:101A6000B2E0CB0ED11CAA24A394B12C11C08130BA
:101A7000910571F08A30910559F021E0A216B10468
:101A800039F0F701EE5DFA4F80834FEFE41AF40A64
:101A90000F5F1F4F80911D0590911E050196909339
:101AA0001E0580931D0580911F05909120050497C8
:101AB00041F4FE01319620E030E0A6014A575A4F2A
:101AC00009C080911D0590911E05883B9B400CF438
:101AD000E4C0EFCFDA01A20FB31F6C91862F8154BF
:101AE000863068F4862F992787FD9095C797AA2797
:101AF00097FDA095BA2F80839183A283B383862F0D
:101B000080538A3068F4862F992787FD9095C09777
:101B1000AA2797FDA095BA2F80839183A283B383D0
:101B20002F5F3F4F349624303105A1F6C980DA800B
:101B3000EB80FC8014E0CC0CDD1CEE1CFF1C1A9525
:101B4000D1F78D819E81AF81B885C80ED91EEA1E5E
:101B5000FB1E04E0CC0CDD1CEE1CFF1C0A95D1F72B
:101B600089859A85AB85BC85C80ED91EEA1EFB1EE9
:101B700084E0CC0CDD1CEE1CFF1C8A95D1F78D8512
:101B80009E85AF85B889C80ED91EEA1EFB1EE2E20B
:101B9000F5E0DF010D900020E9F7BD01615071090A
:101BA0006E1B7F0BCF010E942D04A0E0B0E02091BE
:101BB0001D0530911E05263B3B402CF020911C0555
:101BC000216020931C05C816D906EA06FB0629F0F9
:101BD00080911C05826080931C0580911C058111F9
:101BE00032C080918705823571F4809188058534F3
:101BF00051F480918905813431F480918A058434CF
:101C000011F40E944F0480918705833551F480912F
:101C10008805853431F480918905843511F40E945A
:101C20002C0780918705843471F480918805813474
:101C300051F480918905843531F480918A0581348D
:101C400011F40E94150380911C05882399F160E02E
:101C50008BE094E060960FB6F894DEBF0FBECDBF68
:101C6000DF91CF911F910F91FF90EF90DF90CF9078
:101C7000BF90AF900C94CB2180E00E9406219093FE
:101C8000200580931F0580911D0590911E050196EA
:101C900090931E0580931D05BBCE80E00E94062117
:101CA0009093200580931F058F3FAFEF9A0709F0AF
:101CB000CFCEF0CE60960FB6F894DEBF0FBECDBF8C
:101CC000DF91CF911F910F91FF90EF90DF90CF9018
:101CD000BF90AF900895FC01118281E0828387E07C
:101CE000838340E050EC64EE70E044835583668368
:101CF0007783128A148A138E8FE08087168A178A58
:101D0000108E83E0818FE55EFE4F10828091170C6C
:101D10009091180CA091190CB0911A0CA2608093AC
:101D2000170C9093180CA093190CB0931A0C0895EB
:101D3000CF93C62F64E089ED99E00E94412461E0D1
:101D400089ED99E00E94412461E070E080E090E03C
:101D50000E94E01E8C2F8F770E94242580E0CF9177
:101D60000C9424251F93CF93DF931F92CDB7DEB73A
:101D7000162F64E089ED99E049830E94412461E0D7
:101D800089ED99E00E94412461E070E080E090E0FC
:101D90000E94E01E812F80680E9424254981842FA3
:101DA0000E94242564E089ED99E00F90DF91CF91A6
:101DB0001F910C9441241F93CF93DF93EC0161E0BA
:101DC0000E94980E182F8B8D813041F441E861E01C
:101DD000CE010E94B20E4FEF62E10CC041E061E023
:101DE000CE010E94B20E4FEF6EE3CE010E94B20E02
:101DF0004FEF6FE3CE010E94B20E412F61E0CE01A2
:101E0000DF91CF911F910C94B20ECF93DF93EC0131
:101E100040E061E00E94B20E40E861E0CE010E9425
:101E2000B20E41E861E0CE010E94B20E4FEF63E2D4
:101E3000CE010E94B20E48E06DE1CE010E94B20ECA
:101E400044E76EE1CE010E94B20E61E0CE010E9435
:101E5000980E813821F481E08B8F80E002C01B8EC8
:101E600081E0DF91CF910895CF93DF93EC018B8DCB
:101E70008823E1F06DE1CE010E94980E9B8196309F
:101E800041F0482F4B7F6DE1CE010E94B20E82E0FF
:101E900001C08FEF9B81963061F06DE1CE010E9411
:101EA000980E82FD05C01A8A80E003C08FEF01C042
:101EB00081E0DF91CF910895CF93DF93EC018B8D7B
:101EC0008823A1F06DE1CE010E94980E482F446056
:101ED0006DE1CE010E94B20E6DE1CE010E94980E1E
:101EE00082FF06C081E08A8B80E003C08FEF01C0D3
:101EF00081E0DF91CF9108951F93CF93DF93EC01A1
:101F00001B8D113089F46DE10E94980E482F4260BC
:101F10006DE1CE010E94B20E6DE1CE010E94980EDD
:101F200081FF14C01C8B14C060E30E94980E482FE0
:101F3000406160E3CE010E94B20E60E3CE010E94D8
:101F4000980E84FF03C081E08C8B02C081E001C049
:101F500080E0DF91CF911F910895CF93DF93EC0143
:101F60008B8D882391F06EE1CE010E94980E282F70
:101F700030E044E0359527954A95E1F72B832650CC
:101F800081E0273018F480E001C08FEFDF91CF911E
:101F90000895CF93DF93EC018B8D882389F06DE159
:101FA000CE010E94980E282F30E056E035952795F7
:101FB0005A95E1F7298381E0233019F080E001C0D0
:101FC0008FEFDF91CF910895EF92FF920F931F93C0
:101FD000CF93DF93EC01062F61E00E94980EE82E6C
:101FE0008B8D811105C0CE010E94050F182FD3C023
:101FF00041E861E0CE010E94B20E6DE1CE010E9487
:10200000980EF82E6EE1CE010E94980E182F09301E
:10201000B1F030F4073069F078F4063009F506C005
:102020000B3099F078F00C30D9F415C01F7610669B
:1020300019C01F77106720C01F7810681DC01F7956
:1020400010691AC01F7A106A17C01F7B106BCE016F
:102050000E94C90F02C01F7C106C81E0F82A0CC0DE
:10206000063051F4CE010E945C0F45E061E3CE01E1
:102070000E94B20E4CE006C043E061E3CE010E9434
:10208000B20E4AE067E3CE010E94B20E4F2D6DE121
:10209000CE010E94B20E412F47606EE1CE010E9438
:1020A000B20E6DE1CE010E94980E182F6EE1CE01A6
:1020B0000E94980E0930C1F138F40730F9F048F564
:1020C000063009F065C008C00B3009F445C0B8F10E
:1020D0000C3009F05DC04CC0282F30E014E035957D
:1020E00027951A95E1F72630310511F012E053C01B
:1020F00082FFFCCF8A898130C9F74CC0282F30E09D
:10210000B4E035952795BA95E1F72730310571F799
:1021100020C0282F30E0A4E035952795AA95E1F757
:102120002830310519F715C0282F30E0F4E0359537
:102130002795FA95E1F729303105C1F60AC0282F15
:1021400030E0E4E035952795EA95E1F72A3031054E
:1021500069F682FD1FC0CACF282F30E074E03595A4
:1021600027957A95E1F72B30310509F0BFCF0BC0E9
:10217000282F30E064E0359527956A95E1F72C30FB
:10218000310509F0B3CF82FFB1CF10FFAFCF02C04E
:1021900011E001C010E04E2D61E0CE010E94B20EB0
:1021A000802F8650873010F40B8310E0812FDF9151
:1021B000CF911F910F91FF90EF900895CF92DF92F2
:1021C000EF92FF920F931F93CF93DF931F92CDB7A0
:1021D000DEB76C018B0161E00E94980EE82EF601DB
:1021E000838D811105C0C6010E94050FF82E02C023
:1021F00032E0F32E41E861E0C6010E94B20E6DE1CB
:10220000C6010E94980E482F01301105A1F020F060
:1022100002301105A9F412C04F73C60149830E9410
:10222000AD0FF601938149819B3009F402C09C30C7
:1022300039F4416005C04F77406402C04F7B40686D
:102240006DE1C6010E94B20E6DE1C6010E94980EBA
:1022500001301105F1F020F00230110581F524C0A4
:10226000682F70E026E0759567952A95E1F7672B52
:1022700069F5F60193819B3029F4F82EF094F1E092
:10228000FF2224C09C3009F5F82EF09481E0F8225A
:102290001DC0282F30E096E0359527959A95E1F7F7
:1022A0002130310599F411C0282F30E086E03595B2
:1022B00027958A95E1F72230310541F406C00330B5
:1022C000110520F0FF24F39403C0F12CF6010183E3
:1022D0004E2D61E0C6010E94B20E8F2D0F90DF914E
:1022E000CF911F910F91FF90EF90DF90CF900895C5
:1022F000CF93DF93EC018B8D8823A1F06DE1CE01AC
:102300000E94980E282F30E043E0359527954A9596
:10231000E1F7277033272A83215081E0243018F415
:1023200080E001C08FEFDF91CF910895FF920F936E
:102330001F93CF93DF93EC01162F61E00E94980E5C
:10234000F82E8B8D811105C0CE010E94050F082F3C
:102350006AC041E861E0CE010E94B20E6DE1CE019B
:102360000E94980E123061F018F4113089F405C003
:10237000133049F0143061F409C08F7C886008C0C4
:10238000877D806105C08F7D886102C0877E806205
:10239000482F6DE1CE010E94B20E6DE1CE010E9488
:1023A000980E1230B1F018F41130D1F505C0133089
:1023B000E9F01430A9F527C0282F30E0E3E0359587
:1023C0002795EA95E1F7277033272130310551F140
:1023D00027C0282F30E073E0359527957A95E1F7EF
:1023E0002770332722303105D9F41CC0282F30E064
:1023F00063E0359527956A95E1F7277033272330F9
:10240000310571F40FC0282F30E053E03595279542
:102410005A95E1F7277033272430310509F402C0BB
:1024200002E001C000E0812F8150843010F001E013
:1024300001C01A834F2D61E0CE010E94B20E802FA1
:10244000DF91CF911F910F91FF900895493989ED48
:10245000580782EE6807710509F494C008F04EC071
:10246000493989E9580788ED6807710509F48AC078
:10247000F8F4411580E6580788ED6807710509F4FE
:1024800081C038F44C3C5C44684D710509F07CC057
:1024900079C0433383E7580788ED6807710509F46D
:1024A00071C046365648684D710509F06DC06AC066
:1024B0004115510589ED6807710509F463C078F489
:1024C0004C3C8CEA580788ED6807710509F45AC03E
:1024D0004115504C684D710509F056C053C04E313E
:1024E00085EC580781EE6807710509F44BC04C353F
:1024F0005F44624E710509F047C044C04F3882E026
:10250000580785EE68077105E9F1D8F444318EEE7D
:10251000580783EE68077105A9F130F4473D53462B
:10252000634E710589F52EC0413588E7580784EE62
:102530006807710539F14115504C644E710521F55C
:1025400021C0473481EA580786EE68077105D1F04B
:1025500068F44C3C8CE8580785EE6807710591F0EB
:102560004A305741664E710579F40CC045388BE20C
:10257000580787EE6807710529F0423C554B674EB6
:10258000710511F481E0089580E008950F931F9381
:10259000CF93DF93EC0166E00E94980E182F67E05E
:1025A000CE010E94980E082F68E0CE010E94980E7E
:1025B000412F50E060E070E0BA015527442710E059
:1025C00020E030E0322F212F102F0027400F511F25
:1025D000621F731F480F511D611D711D4C835D8368
:1025E0006E837F83CE010E94261291E0811190E0DC
:1025F000892FDF91CF911F910F9108957F928F9234
:102600009F92AF92BF92CF92DF92EF92FF920F9381
:102610001F93CF93DF93EC016A017B0161E00E947D
:10262000980E782E8B8D813011F441E801C041E085
:1026300061E0CE010E94B20E4E2D66E0CE010E94F6
:10264000B20E4D2D67E0CE010E94B20E4C2D68E017
:10265000CE010E94B20E66E0CE010E94980E082FB5
:1026600067E0CE010E94980E182F902E812CA12C8D
:10267000B12CBA2CA92C982C882468E0CE010E9499
:10268000980E712F60E0082F10E020E030E0060F78
:10269000171F211D311D080D191D2A1D3B1D0C156D
:1026A0001D052E053F0531F4CC82DD82EE82FF82CE
:1026B00010E001C011E0B701A601CE010E94261270
:1026C000811101C01FEF472D61E0CE010E94B20EC3
:1026D000812FDF91CF911F910F91FF90EF90DF90AD
:1026E000CF90BF90AF909F908F907F9008950F9361
:1026F0001F93CF93DF93EC01162F61E00E94980E99
:10270000082F8B8D813011F441E801C041E061E078
:10271000CE010E94B20E1C3439F01D3419F0183469
:1027200039F404C08FE003C0188602C087E08887B0
:10273000488569E0CE010E94B20E69E0CE010E9498
:10274000980E11E09885891301C010E0402F61E0D8
:10275000CE010E94B20E812FDF91CF911F910F9178
:1027600008950F931F93CF93DF93EC01162F61E031
:102770000E94980E082F1F8F8B8D813061F441E8E5
:1027800061E0CE010E94B20E4F8D62E2CE010E9446
:10279000B20E62E20BC041E061E0CE010E94B20ED7
:1027A0004F8D62E3CE010E94B20E62E3CE010E9421
:1027B000980E11E09F8D981301C010E0402F61E04A
:1027C000CE010E94B20E812FDF91CF911F910F9108
:1027D0000895FC01678570896B5F7F4F0C94B1137E
:1027E0001F93CF93DF93EC018B8D8130A1F061E0DB
:1027F000CE010E94980E182F41EC61E0CE010E949C
:10280000B20E63E3CE010E94980E898B412F61E0E6
:10281000CE010E94B20E80E0DF91CF911F9108950A
:102820000F931F93CF93DF93EC01162F698B61E019
:102830000E94980E082F9B8D9130F9F091111DC0C8
:1028400041E061E0CE010E94B20E412F63E3CE0170
:102850000E94B20E40E064E3CE010E94B20E63E338
:10286000CE010E94980E182F402F61E0CE010E94E9
:10287000B20E81E09989191301C080E0DF91CF91F8
:102880001F910F910895CF93DF93EC018B8D8130D1
:10289000C9F469E1CE010E94980E282F30E087FF2D
:1028A0000AC03195219531093327359527953595FE
:1028B0002795219504C03595279535952795298726
:1028C00080E001C08FEFDF91CF910895EF92FF92EA
:1028D0000F931F93CF93DF93EC018B8D25E0E22EB6
:1028E000F12C00E010E0813079F46BE1CE010E9420
:1028F000980E89588A87080F111D87FD1A9581E067
:10290000E81AF10891F70FC061E1CE010E94980E1C
:10291000282F30E0359527952A87020F131F81E075
:10292000E81AF10889F7C80165E070E00E94532CAD
:102930006A8780E0DF91CF911F910F91FF90EF9018
:102940000895CF92DF92EF92FF920F931F93CF9350
:10295000DF93EC018B8D813009F04CC0CE010E94D9
:102960004314182F811147C0098507FF2EC0E98144
:1029700084E0E89FF0011124E35FFA4F20E030E0AB
:1029800040E251E460817181828193810E94662AD4
:1029900020E030E04EE253E40E945F2820E030E087
:1029A00040EC50E40E9460286B017C01602F772787
:1029B00067FD7095872F972F0E9472299B01AC01AC
:1029C000C701B6010E94602810C06AE1CE010E94D2
:1029D000980E682F70E080E090E00E94722920E05D
:1029E00030E049E053E40E945F280E943F297C8741
:1029F0006B8701C01FEF212F332727FD3095812FD3
:102A0000932FDF91CF911F910F91FF90EF90DF9067
:102A1000CF9008950F931F93CF93DF93EC016C3108
:102A2000E0F4062F006261E00E94980E182F8B8D53
:102A3000813011F441E801C041E061E0CE010E9423
:102A4000B20E402F6BE0CE010E94B20E412F61E02A
:102A5000CE010E94B20E80E001C08FEFDF91CF91D6
:102A60001F910F910895CF93DF93EC0161E086E110
:102A70000E94C11F61E086E10E94DA1F81E080931D
:102A8000D9090E94052481E00E94282484E00E9444
:102A9000362480E00E9431246BE1CE010E940A15A9
:102AA000811105C0CE01DF91CF910C94050F81E01B
:102AB000DF91CF9108957F928F929F92AF92BF92B4
:102AC000CF92DF92EF92FF920F931F93CF93DF93FA
:102AD000EC010E94DB0E8B8D813011F441E801C0C6
:102AE00041E061E0CE010E94B20E65E0CE010E949D
:102AF000B113782E811165C08E01045E1D4F80E0F8
:102B000091E0D8019C011D9221503040E1F7FE0177
:102B1000E35EFE4F8081D8018C934E01B3EE8B1A99
:102B2000BDEF9B0AFE01E45EFE4F8081F4018083CD
:102B30005E01F2EEAF1AFDEFBF0AFE01E25EFE4F4C
:102B40008081D5018C936E01B1EECB1ABDEFDB0A0B
:102B5000F60110827E01F0EEEF1AFDEFFF0A8F8979
:102B6000D7018C9340E06DE0CE010E94B20E40E0B0
:102B70006EE0CE010E94B20EF801408160E0CE010D
:102B80000E94B20ED4014C9160E0CE010E94B20EC0
:102B9000F501408160E0CE010E94B20ED6014C9159
:102BA00060E0CE010E94B20EF701408160E0CE01EC
:102BB0000E94B20E1F8A64EF71E080E090E00E94F4
:102BC000E01E872DDF91CF911F910F91FF90EF9025
:102BD000DF90CF90BF90AF909F908F907F9008959F
:102BE0001F93CF93DF93EC01845E9E4FFC0180E046
:102BF00091E0DF019C011D9221503040E1F743E458
:102C000061E3CE010E94B20E49E06AE0CE010E946B
:102C1000B20E43E26CE0CE010E94B20E40E06DE0E5
:102C2000CE010E94B20E4FEF6FE1CE010E94B20EB4
:102C300040E065E2CE010E94B20E8B8D813039F406
:102C40006FEFCE010E94B113182F45E805C0CE01E9
:102C50000E94E913182F45E061E0CE010E94B20EF8
:102C6000812FDF91CF911F9108958F929F92AF9204
:102C7000BF92CF92DF92EF92FF921F93CF93DF9399
:102C8000EC014A015B011B8A0E948E1E6B017C01D4
:102C90008B8D813061F562E1CE010E94980E182F74
:102CA00004C00E948E1E6B017C0114FD7DC00E9439
:102CB0008E1E6C197D098E099F09681579058A0594
:102CC0009B0508F447C07BC00E948E1E6B017C01EF
:102CD00011116FC00E948E1E6C197D098E099F090B
:102CE000681579058A059B0508F442C018C06FE392
:102CF000CE010E94980E182F04C00E948E1E6B01F8
:102D00007C0112FD54C00E948E1E6C197D098E0933
:102D10009F09681579058A059B05C0F150C08B890C
:102D2000813089F48D899989891791F0882381F000
:102D30008B8D813011F441E801C041E061E0CE01AA
:102D40000E94B20E03C08B8D8130B9F780E039C08C
:102D500081E037C062E1CE010E94980E182F0E94D8
:102D60008E1E6C157D058E059F0508F09ECF99CFB0
:102D700065E2CE010E94980E182F0E948E1E6C15DF
:102D80007D058E059F0508F0A3CF9ECF6FE3CE0192
:102D90000E94980E182F0E948E1E6C157D058E05C0
:102DA0009F0508F0AECFA9CF81E08B8B93CF81E058
:102DB0008B8B60E0CE010E94980E8D8BB0CF1B8A6A
:102DC000AECFDF91CF911F91FF90EF90DF90CF902A
:102DD000BF90AF909F908F90089540E157E260E0E0
:102DE00070E00C9435168F929F92AF92BF92CF9263
:102DF000DF92EF92FF920F931F93CF93DF93EC013B
:102E00004A015B010E948E1E6B017C018B8D81301B
:102E100039F562E1CE010E94980E182F04C00E947D
:102E20008E1E6B017C0116FDE4C00E948E1E6C1983
:102E30007D098E099F09681579058A059B0508F4A7
:102E4000BCC002C01F8A39C015FD06C08C89813004
:102E500019F41F8A12E091C081E08F8B13E08DC0BE
:102E60006FE3CE010E94980E182F04C00E948E1EA0
:102E70006B017C0112FDC0C00E948E1E6C197D0981
:102E80008E099F09681579058A059B0508F4A3C07A
:102E900000E005C08C89813021F41F8A01E012E036
:102EA00004C081E08F8B00E013E041E061E0CE01DF
:102EB0000E94B20E013009F060C08B8D813069F440
:102EC00040E06DE0CE010E94B20E60E0CE010E94B3
:102ED000980EFE01E45EFE4F12C060E3CE010E9438
:102EE000980E8E01045E1E4F82FD07C081FD05C055
:102EF00060E0CE010E94980E01C08D89F8018083A8
:102F000060E0CE010E94980EFE01E35EFE4F8083DA
:102F100060E0CE010E94980EFE01E25EFE4F8083CB
:102F200060E0CE010E94980EFE01E15EFE4F8083BC
:102F30009B8D913021F490E00597988B8F87E12C41
:102F4000F12C0CC0CE010E94980EFE01EE0DFF1D6B
:102F5000E05EFE4F8083FFEFEF1AFF0A8F859889AE
:102F600060E0E816F90670F3CE010E94980EFE01AB
:102F7000E55EFD4F808310E00CC08F89813041F405
:102F8000888D998D891720F4133011F08F5F888F09
:102F900011E08B8D813029F440E06DE0CE010E947C
:102FA000B20ECE010E94DB0E81EE88168EE29806EC
:102FB000A104B10420F11FEF22C062E1CE010E9402
:102FC000980E182F0E948E1E6C157D058E059F058C
:102FD00008F029CF24CF6FE3CE010E94980E182F5E
:102FE0000E948E1E6C157D058E059F0508F042CF50
:102FF0003DCF15FF27CF28CF11FD4CCF52CF812FCA
:10300000DF91CF911F910F91FF90EF90DF90CF90C4
:10301000BF90AF909F908F90089540E157E260E09D
:1030200070E00C94F316FC01658B648F8189858FA9
:103030008689868F8F5F868B80E008952F923F92DE
:103040004F925F926F927F928F929F92AF92BF92B8
:10305000CF92DF92EF92FF920F931F93CF93DF9364
:10306000CDB7DEB72E970FB6F894DEBF0FBECDBF3B
:103070002C018B01FC01638170E080E090E00E94F4
:1030800070294B015C01F201628970E080E090E000
:103090000E9470296B837C838D839E83F201628101
:1030A00070E080E090E00E9470296F8378878987C4
:1030B0009A8720E030E040E251E4682D792D8A2D96
:1030C0009B2D0E94622A18163CF4C12CD12CE0E8FA
:1030D000EE2EEFE3FE2E03C0C12CD12C760101159C
:1030E000110559F0B8016B5F7F4F80E090E00E94BE
:1030F000702969837A833C0106C019821A826FE7BE
:10310000662E73E4772EF2018181882391F081305D
:1031100049F0823071F4212C312C5AEF452E53E4C2
:10312000552E0DC0212C312C4AE7442E43E4542E59
:1031300006C0212C312C3AEF432E32E4532E282D99
:10314000392D4A2D5B2D60E070E080E090E40E9414
:10315000C92AA20191010E94D7288B018E879D87E1
:1031600020E030E044E451E4712F0E94662A362EBC
:10317000272E8B879C8720E030E040E051E4B98126
:10318000AA816B2F7A2F862D972D0E94662A2B01FC
:103190003C0120E030E040E850E4682D792D8A2D94
:1031A0009B2D0E94662A9B01AC01C301B2010E94C3
:1031B0005F2820E030E040EE51E40E94602820E0EB
:1031C00030E040E851E40E9460282B013C0120E0FF
:1031D00030E040EA51E4BB81AC81ED81FE816B2F90
:1031E0007A2FCF010E94662A9B01AC01C301B20174
:1031F0000E945F282B013C01A7019601C701B6017F
:103200000E9460289B01AC01682D792D8A2D9B2D91
:103210000E945F2820E030E040E850E40E94662AE7
:103220009B01AC01C301B2010E94D7280E94C428AF
:103230006B017C0120E030E040E850E4BF81A885CC
:10324000B984AA846B2F7A2F8B2D9A2D0E94602827
:103250009B01AC01C701B6010E94662A6B017C018B
:1032600020E030E0A9017D2D9F2D0E94622A1816D2
:103270005CF420E030E040E051E46C2D7D2D8E2D9B
:103280009F2D0E94602804C060E070E080E091E41F
:10329000FE85ED85202F312F4F2F5E2F0E94662A4D
:1032A0009B01AC01D101EB851C856B2F722D8E2FFC
:1032B000912F0E9460282E960FB6F894DEBF0FBEA5
:1032C000CDBFDF91CF911F910F91FF90EF90DF90D5
:1032D000CF90BF90AF909F908F907F906F905F90B6
:1032E0004F903F902F900895FC01678570890C9452
:1032F0001E18AF92BF92CF92DF92EF92FF920F9380
:103300001F93CF93DF938C01FC01838DE801C25E94
:10331000DC4F813069F56881798180E090E00E941E
:1033200070292DEC3CEC4CEC5DE30E94662A20E019
:1033300030E040E85FE30E9460280E9444295B017E
:10334000C8010E9474196B017C010E94702D8C01D0
:10335000C701B6010E9444299B0128513C4FC80176
:10336000B5010E943F2C280F391F3983288304C0E0
:1033700080E197E29983888380E0DF91CF911F916C
:103380000F91FF90EF90DF90CF90BF90AF90089596
:10339000CF93DF93FC01C62FD72FDE010D900020C5
:1033A000E9F71197AC1BBD0BAC3FB10528F08BEFD3
:1033B00090E0908B878702C0B08BA78727853089E4
:1033C000DB0180E090E006C04D91EF01C80FD91FEE
:1033D00048A3019682179307B9F7238D211106C0E0
:1033E000CD9720F08CE390E0908B8787CF01DF9121
:1033F000CF910C94E913EF92FF920F931F93CF9309
:10340000DF93EC01F62E8A0161E00E94980EE82E0F
:10341000CE010E94DB0E1F8A888D81110DC06F2D99
:10342000CE010E941318F82E81110FC0B801CE01F1
:103430000E94C819F82E09C0CE010E94E913F82E87
:10344000FE01E55EFE4F888D808340E06EE0CE0198
:103450000E94B20E40E06DE0CE010E94B20EF1106B
:103460002DC04C8D60E0CE010E94B20E4D8D60E00B
:10347000CE010E94B20E4E8D60E0CE010E94B20ECF
:103480004F8D60E0CE010E94B20E00E010E009C056
:10349000E00FF11F40A160E0CE010E94B20E0F5F6D
:1034A0001F4F2F853889FE010217130788F3E55E49
:1034B000FE4F408160E0CE010E94B20E4E2D61E0D1
:1034C000CE010E94B20E8F2DDF91CF911F910F91EF
:1034D000FF90EF9008958F929F92AF92BF92CF92FC
:1034E000DF92EF92FF921F93CF93DF93EC014A019B
:1034F0005B010E948E1E6B017C018B8D813001F57A
:10350000CE010E94DB0E43E861E0CE010E94B20EC4
:1035100062E1CE010E94980E182F04C00E948E1EF8
:103520006B017C0113FD28C00E948E1E6C197D0961
:103530008E099F09681579058A059B0530F11CC025
:1035400043E061E0CE010E94B20E6FE3CE010E9423
:10355000980E182F04C00E948E1E6B017C0113FD73
:103560000BC00E948E1E6C197D098E099F0968157B
:1035700079058A059B05B0F0CE010E94DB0E13FB96
:10358000882780F991E089271AC062E1CE010E9464
:10359000980E182F0E948E1E6C157D058E059F05B6
:1035A00008F6BCCF6FE3CE010E94980E182F0E9440
:1035B0008E1E6C157D058E059F0588F6CCCFDF919C
:1035C000CF911F91FF90EF90DF90CF90BF90AF9081
:1035D0009F908F900895CF93DF93EC010E9479190B
:1035E000FE01E25EFC4F4081518160E070E0CE015F
:1035F000DF91CF910C946B1ACF93DF93EC010E9473
:10360000FB19811105C0CE01DF91CF910C94EB1A0B
:10361000DF91CF9108958F929F92AF92BF92CF92F8
:10362000DF92EF92FF920F931F93CF93DF93EC0102
:103630004A015B010E948E1E6B017C018B8D8130E3
:10364000D9F462E1CE010E94980E182F04C00E94A6
:103650008E1E6B017C01012F007416FD8DC00E942F
:103660008E1E6C197D098E099F09681579058A05DA
:103670009B0508F473C080C06FE3CE010E94980ED2
:10368000182F04C00E948E1E6B017C01012F047054
:1036900012FD86C00E948E1E6C197D098E099F093D
:1036A000681579058A059B0508F46CC079C011235B
:1036B00009F448C04E0184EE881A8DEF980A8D896E
:1036C000F401808360E0CE010E94980E5E01F3EE6B
:1036D000AF1AFDEFBF0AF501808360E0CE010E94C2
:1036E000980E6E01F2EECF1AFDEFDF0AF60180832D
:1036F00060E0CE010E94980E7E01F1EEEF1AFDEF20
:10370000FF0AF701808360E0CE010E94980EFE015F
:10371000E05EFD4F8083F40120819D8D291314C04C
:10372000F50120819C8D291311C0F60120819E8D09
:1037300029130EC0F701908191110CC081110CC0AA
:1037400010E038C018E036C017E034C016E032C0D0
:1037500015E030C014E02EC013E02CC062E1CE01B1
:103760000E94980E182F0E948E1E6C157D058E05E6
:103770009F0508F070CF6BCF11E0011101C010E080
:1037800041E813C06FE3CE010E94980E182F0E94EB
:103790008E1E6C157D058E059F0508F077CF72CFC4
:1037A00011E0011101C010E041E061E0CE010E9492
:1037B000B20E7DCFCE010E94DB0E812FDF91CF9123
:1037C0001F910F91FF90EF90DF90CF90BF90AF903F
:1037D0009F908F90089540E157E260E070E00C9474
:1037E0000B1BCF93DF93EC010E94FC1A811110C0D8
:1037F000CE010E94F01581110BC0CE010E94ED1682
:10380000882329F0CE01DF91CF910C94EB1B89E046
:10381000DF91CF910895EF92FF920F931F93CF9373
:10382000DF938C01FC01E15EFE4F80818550C0E09A
:10383000D0E0E82EF12C0AC0F801EC0FFD1FE05E8D
:10384000FE4F60E080810E94C9212196CE15DF05E0
:103850009CF360E081ED94E00E94CB2180E0DF9159
:10386000CF911F910F91FF90EF9008958CEE95E00E
:103870000C946B0ECF92DF92EF92FF920F931F93F7
:10388000CF93DF936C018B010596FC0181E1DF0191
:103890001D928A95E9F77B01C3E9D0E0BE0188ED6E
:1038A00099E00E94D022F601EC0FFD1FEE58F109BD
:1038B0008083F70181937F012196C33AD10571F787
:1038C000D80150961C92DF91CF911F910F91FF90DC
:1038D000EF90DF90CF900895CF93DF93EC0160E0FD
:1038E00083EA90E00E940E3086E990E09C838B830F
:1038F000BE016B5F7F4F8CE099E0DF91CF910C941C
:103900003A1C8CE099E00C946C1C1F920F920FB63D
:103910000F9211240BB60F922F933F934F935F9307
:103920006F937F938F939F93AF93BF93EF93FF9387
:103930008091BB099091BC09892B29F0E091BB09CA
:10394000F091BC090995FF91EF91BF91AF919F91C3
:103950008F917F916F915F914F913F912F910F9038
:103960000BBE0F900FBE0F901F9018951F920F92D5
:103970000FB60F9211240BB60F922F933F934F93D4
:103980005F936F937F938F939F93AF93BF93EF93C7
:10399000FF938091BD099091BE09892B29F0E09198
:1039A000BD09F091BE090995FF91EF91BF91AF91CB
:1039B0009F918F917F916F915F914F913F912F9147
:1039C0000F900BBE0F900FBE0F901F9018951F9277
:1039D0000F920FB60F9211240BB60F922F933F93B5
:1039E0004F935F936F937F938F939F93AF93BF9307
:1039F000EF93FF938091BF099091C009892B29F023
:103A0000E091BF09F091C0090995FF91EF91BF9135
:103A1000AF919F918F917F916F915F914F913F9166
:103A20002F910F900BBE0F900FBE0F901F90189507
:103A30001F920F920FB60F9211240BB60F922F9375
:103A40003F934F935F936F937F938F939F93AF9326
:103A5000BF93EF93FF938091C1099091C209892B85
:103A600029F0E091C109F091C2090995FF91EF9108
:103A7000BF91AF919F918F917F916F915F914F9186
:103A80003F912F910F900BBE0F900FBE0F901F9084
:103A900018951F920F920FB60F9211240BB60F922A
:103AA0002F933F934F935F936F937F938F939F9346
:103AB000AF93BF93EF93FF938091C3099091C40993
:103AC000892B29F0E091C309F091C4090995FF9170
:103AD000EF91BF91AF919F918F917F916F915F9186
:103AE0004F913F912F910F900BBE0F900FBE0F90F3
:103AF0001F9018951F920F920FB60F9211240BB6BC
:103B00000F922F933F934F935F936F937F938F9376
:103B10009F93AF93BF93EF93FF938091C5099091CB
:103B2000C609892B29F0E091C509F091C6090995CC
:103B3000FF91EF91BF91AF919F918F917F916F9185
:103B40005F914F913F912F910F900BBE0F900FBE41
:103B50000F901F9018951F920F920FB60F9211247D
:103B60000BB60F922F933F934F935F936F937F9377
:103B70008F939F93AF93BF93EF93FF938091C70968
:103B80009091C809892B29F0E091C709F091C809E3
:103B90000995FF91EF91BF91AF919F918F917F9187
:103BA0006F915F914F913F912F910F900BBE0F90AE
:103BB0000FBE0F901F9018951F920F920FB60F9285
:103BC00011240BB60F922F933F934F935F936F93F4
:103BD0007F938F939F93AF93BF93EF93FF938091C6
:103BE000C9099091CA09892B29F0E091C909F0917E
:103BF000CA090995FF91EF91BF91AF919F918F9164
:103C00007F916F915F914F913F912F910F900BBEDC
:103C10000F900FBE0F901F9018951F920F920FB626
:103C20000F9211240BB60F922F933F934F935F93F4
:103C30006F937F938F939F93AF93BF93EF93FF9374
:103C4000F89481E080930B02E0E6F0E080818068E8
:103C5000808380818F7B808360E083E00E94DA1F15
:103C60007894FF91EF91BF91AF919F918F917F9148
:103C70006F915F914F913F912F910F900BBE0F90DD
:103C80000FBE0F901F9018951F920F920FB60F92B4
:103C900011248F939F93AF93BF938091290C9091A0
:103CA0002A0CA0912B0CB0912C0C0196A11DB11DDA
:103CB0008093290C90932A0CA0932B0CB0932C0C7E
:103CC000BF91AF919F918F910F900FBE0F901F905A
:103CD00018951F920F920FB60F9211248F939F93F6
:103CE000AF93BF9380912D0C90912E0CA0912F0C2F
:103CF000B091300C0196A11DB11D80932D0C9093B5
:103D00002E0CA0932F0CB093300CBF91AF919F91CC
:103D10008F910F900FBE0F901F9018958F929F92CA
:103D2000AF92BF92CF92DF92EF92FF920F931F93C9
:103D3000CF93DF932FB7F8948091290C90912A0CA0
:103D4000A0912B0CB0912C0C2FBF9C01AD0160E019
:103D500070E080E090E001E00E94042D4901D42F42
:103D6000C52FB62FA72FF82FE92F02E00E94042DB0
:103D700059016A017B018C0194014D2F5C2F6B2F3F
:103D80007A2F8F2F9E2F0E94132DE9E0AE2EB12C9B
:103D9000C12CD12CE12CF12C00E010E00E94A72CCA
:103DA000952FB901842FDF91CF911F910F91FF9033
:103DB000EF90DF90CF90BF90AF909F908F9008953D
:103DC0008F929F92AF92BF92CF92DF92EF92FF922B
:103DD0004B015C0107C00E948E1E6C157D058E058F
:103DE0009F0520F40E948E1E6B017C010E948E1E96
:103DF0006C197D098E099F09681579058A059B054F
:103E000050F3FF90EF90DF90CF90BF90AF909F90D6
:103E10008F900895BC01049768F080E090E00E94C4
:103E2000702926E636E646EE5FE30E94662A0E9487
:103E3000442902C0660F771F6150710961F061501B
:103E4000710949F0FB01EE0FFF1F31978FB7F8940E
:103E50003197F1F78FBF0895789484B7877F84BF37
:103E60001092290C10922A0C10922B0C10922C0CF0
:103E700084B5826084BD84B5816084BD85B582606F
:103E800085BD85B5816085BDEEE6F0E0808181600D
:103E90008083E1E8F0E080818260808380818160BE
:103EA0008083E0E8F0E0808181608083E1EBF0E0F6
:103EB000808184608083E1E9F0E080818460808398
:103EC000E0EBF0E0808181608083E0E9F0E08081D8
:103ED00081608083E4E6F0E080818E7F8083ECE780
:103EE000F0E080818F778083808180648083EAE73F
:103EF000F0E0808184608083808182608083808123
:103F0000806880831092C1001092C900089590913A
:103F1000CB09982B9093CB0980FF32C0809164002D
:103F20008E7F8093640080917C008F7780937C00EB
:103F300080917C00806480937C0080917A00846012
:103F400080937A0080917A00826080937A008091D9
:103F50007A00806880937A00809164008F778093E4
:103F60006400809164008B7F809364008091640082
:103F70008D7F80936400809165008E7F80936500C3
:103F8000089590E0FC01EF57FE4F2491FC01EC54A2
:103F9000FE4FE491EE2369F0F0E0E950FE4FA4916A
:103FA000B0E08C91611103C02095822301C0822B67
:103FB0008C93089590E0FC01E25BFE4F2491FC019C
:103FC000EF57FE4F3491FC01EC54FE4F849188234F
:103FD000B1F1222331F1233021F4909180009F77B9
:103FE00005C0243031F4909180009F7D9093800033
:103FF00018C0213019F494B59F7704C0223021F401
:1040000094B59F7D94BD0DC0263021F49091B000F1
:104010009F7705C0273029F49091B0009F7D909341
:10402000B000E82FF0E0E151FE4FA491B0E08C9198
:10403000611103C03095832301C0832B8C930895B5
:1040400090E0FC01E25BFE4F2491FC01EF57FE4F34
:104050003491FC01EC54FE4F8491882399F1222382
:1040600031F1233021F4909180009F7705C02430F6
:1040700031F4909180009F7D9093800018C0213092
:1040800019F494B59F7704C0223021F494B59F7D34
:1040900094BD0DC0263021F49091B0009F7705C0EB
:1040A000273029F49091B0009F7D9093B000E82FC5
:1040B000F0E0E951FE4FE491F0E08081832321E0BC
:1040C00030E011F420E030E0C9010895CF92DF9292
:1040D000EF92FF926B017C01411134C088E00E9495
:1040E000871FC701B60122E030E040E050E00E94A7
:1040F000892C305F414F5F4FCA01B901A70196017A
:104100000E94892CDA01C9010197A109B109892FFF
:104110009A2FAB2FBB27A7FDBA958093C5002150DE
:104120002093C4008091C10080618093C100809180
:10413000C10088608093C1008091C1008068809335
:10414000C10033C080E10E94871FC701B60122E091
:1041500030E040E050E00E94892C305F414F5F4FDB
:10416000CA01B901A70196010E94892CDA01C9018F
:104170000197A109B109892F9A2FAB2FBB27A7FD62
:10418000BA958093CD0021502093CC008091C90036
:1041900080618093C9008091C90088608093C900C4
:1041A0008091C90080688093C900FF90EF90DF90F4
:1041B000CF900895611107C09091C00095FFFCCF8A
:1041C0008093C60008959091C80095FFFCCF80931E
:1041D000CE00089581110AC08091D2099091D3092F
:1041E0009E5F2091D0093091D10909C08091CE09FC
:1041F0009091CF099E5F2091CC093091CD09821B0F
:10420000930B60E072E00E94532C0895811119C055
:104210008091D0099091D1092091D2093091D30990
:104220002817390741F1FC01EF5CF14F208101961D
:1042300060E072E00E94532C9093D1098093D009E2
:1042400018C08091CC099091CD092091CE09309170
:10425000CF092817390779F0FC01EF5CF34F208173
:10426000019660E072E00E94532C9093CD098093F8
:10427000CC0930E002C02FEF3FEFC9010895811152
:1042800009C01092D1091092D0091092D30910924E
:10429000D20908951092CD091092CC091092CF093D
:1042A0001092CE0908951F920F920FB60F9211240B
:1042B0002F933F934F935F936F937F938F939F932E
:1042C000AF93BF93EF93E091C6002091D209309154
:1042D000D309C901019660E072E00E94532C40911D
:1042E000D0095091D1098417950741F0D901AF5CED
:1042F000B14FEC939093D3098093D209EF91BF9182
:10430000AF919F918F917F916F915F914F913F916D
:104310002F910F900FBE0F901F9018951F920F9224
:104320000FB60F9211242F933F934F935F936F9388
:104330007F938F939F93AF93BF93EF93E091CE00C2
:104340002091CE093091CF09C901019660E072E059
:104350000E94532C4091CC095091CD0984179507A8
:1043600041F0D901AF5CB34FEC939093CF098093A8
:10437000CE09EF91BF91AF919F918F917F916F91F6
:104380005F914F913F912F910F900FBE0F901F9013
:1043900018950C94DA201F93CF93DF93162FEC011E
:1043A00003C0612F0E94DA2089918111FACFDF9139
:1043B000CF911F9108950E942C1F88ED99E00E94D3
:1043C000FD23853440F061E081E30E94C11F61E07C
:1043D00081E30E94DA1F61E070E088ED99E00E94BD
:1043E000D0228130B1F48091170C9091180CA091DB
:1043F000190CB0911A0C90688093170C9093180CBC
:10440000A093190CB0931A0C60E081E090E00E9438
:104410000E3063E070E080E090E00E94E01E80914A
:10442000170C9091180CA091190CB0911A0CA1FFC7
:104430005EC063E070E080E090E00E94E01E61E01A
:1044400086E10E94C11F63E070E080E090E00E947E
:10445000E01E61E086E10E94DA1F63E070E080E028
:1044600090E00E94E01E0E94052463E070E080E07E
:1044700090E00E94E01E81E00E94282463E070E04A
:1044800080E090E00E94E01E84E00E94362463E019
:1044900070E080E090E00E94E01E80E00E94312405
:1044A00063E070E080E090E00E94E01E0E9424241F
:1044B00063E070E080E090E00E94E01E64E089ED3F
:1044C00099E00E94412463E070E080E090E00E9467
:1044D000E01E61E086E10E94C11F60E086E10E946B
:1044E000DA1F63E070E080E090E00E94E01E63E08D
:1044F00070E080E090E00E94E01E88ED99E00E946C
:10450000D7236093D4097093D5098093D6099093EB
:10451000D7098091D4099091D509A091D609B0917D
:10452000D7090E94742D0E9493020E94500CFDCF67
:104530001F93CF93DF931F92CDB7DEB7162F61E0A5
:10454000812F49830E94C11F4981413011F461E0EC
:1045500003C0411108C060E0812F0F90DF91CF911F
:104560001F910C94DA1F0F90DF91CF911F91089546
:1045700061E087E10E94C11F61E084E20E94C11FE7
:1045800061E085E20E94C11F61E087E10E94DA1FBD
:1045900061E084E20E94DA1F61E085E20C94DA1F98
:1045A000CB010C940030CB01611524E072071CF0A4
:1045B000642F0C940E3008958F929F92AF92BF9209
:1045C000CF92DF92EF92FF920F931F93CF93DF93DF
:1045D000CDB7DEB7C75FD1090FB6F894DEBF0FBE07
:1045E000CDBF8E0100511F4F580128E0A20EB11C13
:1045F0007E0181E8E80EF11CCC24C394D12CCC0EB2
:10460000DD1E6DE0CE018F519F4F0E945C2640E081
:104610006CE088ED99E00E94982240E06DE088ED22
:1046200099E00E949822F80110821182128213826E
:1046300061E08CE00E94C11F61E08CE00E94DA1F03
:10464000CE018F519F4F0E943C2541E06DE088EDE7
:1046500099E00E9498226AE070E080E090E00E9479
:10466000E01E40E063E3CE018F519F4F0E940D2674
:1046700062E370E080E090E00E94E01E4701CE011E
:104680008F519F4F0E94E225F2E08F1A9108F401AA
:104690008083118261E070E080E090E00E94E01E83
:1046A0008C149D0461F7FE017196D701C6018059F3
:1046B0009F4F219131912D933D93E817F907C9F749
:1046C00031EE832E912C8C0E9D1E81E090E0A0E0B7
:1046D000B0E0F401329122914F012130310569F4AB
:1046E000F8014081518162817381480F591F6A1F0F
:1046F0007B1F4083518362837383880F991FAA1F96
:10470000BB1F8E149F0429F7F80180819181A2813B
:10471000B3818F3F9F4FAF4FBF4F29F4F8011082F5
:1047200011821282138260E08CE00E94DA1F40E066
:104730006CE088ED99E00E94982240E06DE088ED01
:1047400099E00E9498220C5F1F4F0A151B0509F083
:1047500058CFC051DF4F088119812A813B81C05F4A
:10476000D040CC50DF4F88819981AA81BB81C45F42
:10477000D040081719072A073B0719F000E010E09E
:104780009801B801C901C950DF4F0FB6F894DEBFD8
:104790000FBECDBFDF91CF911F910F91FF90EF9092
:1047A000DF90CF90BF90AF909F908F900895CF9261
:1047B000DF92EF92FF920E94DC226B017C01611577
:1047C00071058105910591F483EE90E00E94083017
:1047D0006A302AE072078207920741F06F3F2FEF9D
:1047E00072078207920711F06B017C01B601C701C5
:1047F000FF90EF90DF90CF9008958FED90E00E94B2
:1048000000308F3F09F480E0089561E08EE10E945E
:10481000C11F61E08FE10E94C11F61E08DE10E9434
:10482000C11F60E08EE10E94DA1F60E08FE10E940C
:10483000DA1F61E08DE10E94DA1F8CB580618CBDCA
:104840008CB580648CBD08958CB58F7B8CBD08952C
:10485000811103C08CB5806202C08CB58F7D8CBD88
:1048600008959CB5937F982B9CBD08952CB5982FE7
:1048700093702C7F922B9CBD9DB580FB90F99DBDC4
:104880000895CF93C62F61E08DE10E94C11F61E0C2
:1048900082E20E94C11F61E08DE10E94DA1F61E0A7
:1048A00082E20E94DA1F8091170C9091180CA0915F
:1048B000190CB0911A0CA2FF08C061E088E00E94B8
:1048C000C11F61E088E00E94DA1FC23089F028F43D
:1048D000CC2341F0C130B1F508C0C33081F0C43001
:1048E00089F519C060E08DE12AC060E082E227C04E
:1048F00088ED99E00E94B82260E08CE220C08091AF
:10490000170C9091180CA091190CB0911A0CA2FFE1
:1049100019C060E013C061E08DE10E94DA1F61E020
:1049200082E20E94DA1F8091170C9091180CA091DE
:10493000190CB0911A0CA2FF05C061E088E0CF917C
:104940000C94DA1FCF9108958091170C9091180C58
:10495000A091190CB0911A0CA2FF0EC08091170CF7
:104960009091180CA091190CB0911A0C81FF04C001
:104970008091DB09882311F18091170C9091180C1C
:10498000A091190CB0911A0CA1FF0CC08091D9090B
:10499000811108C061E086E10E94C11F61E086E1EB
:1049A0000E94DA1F8091DA0981110DC061E08BE16C
:1049B0000E94C11F61E08BE10C94DA1F61E082E08C
:1049C0000E94DA1FD9CF08958091170C9091180C8E
:1049D000A091190CB0911A0CA2FF0EC08091170C77
:1049E0009091180CA091190CB0911A0C81FF04C081
:1049F0008091DB09882311F18091170C9091180C9C
:104A0000A091190CB0911A0CA1FF0CC08091D9098A
:104A1000811108C061E086E10E94C11F60E086E16B
:104A20000E94DA1F8091DA0981110DC061E08BE1EB
:104A30000E94C11F60E08BE10C94DA1F60E082E00D
:104A40000E94DA1FD9CF0895CF93C82F89ED99E03E
:104A50000E94A424CEBD0DB407FEFDCF89ED99E0E0
:104A60000E94E4248EB5CF9108951092DA09109235
:104A7000D9091092DB090895CF92DF92EF92FF924D
:104A80001F93CF93DF93EC0160E08E850E94C11FDE
:104A90000E948E1E6B017C011EE7115089F182E09D
:104AA00090E00E940A1F0E948E1E6C157D058E05E7
:104AB0009F0520F40E948E1E6B017C018E850E9452
:104AC0002020892BF9F40E948E1E6C197D098E0915
:104AD0009F09643F714081059105F8F213C00E945F
:104AE0008E1E6B017C011130C1F10E948E1E6C196B
:104AF0007D098E099F09643F714081059105D0F0C1
:104B000010E02BC061E08E850E94C11F60E08E85A1
:104B10000E94DA1F84E591E00E940A1F0E948E1E07
:104B20006B017C018E850E94202011E0892BD9F237
:104B300010E0D9CF8E850E94202011E0892B09F04A
:104B400010E089E090E00E940A1F0E948E1E6C1502
:104B50007D058E059F0538F6C2CF812FDF91CF915D
:104B60001F91FF90EF90DF90CF9008951F93CF9308
:104B7000DF93FC011081C181D281912F9095F8942F
:104B80008A8189238A838981812B898360FF0BC075
:104B900089E090E00E940A1F8A81812B8A837894A1
:104BA0008FE290E00AC087E390E00E940A1F8A81AA
:104BB000812B8A83789485E090E0DF91CF911F91DB
:104BC0000C940A1F0F931F93CF93DF93FC01108166
:104BD000C181D281F8948981812B89838A81012FB7
:104BE000009580238A8382E090E00E940A1F8981D9
:104BF0008023898387E090E00E940A1FC88178940F
:104C00008DE290E00E940A1F1C2381E009F480E0FD
:104C1000DF91CF911F910F910895CF92DF92EF9284
:104C2000FF920F931F93CF93DF931F92CDB7DEB701
:104C30006C01E62E08E010E0FF24F3949F2D9E21E6
:104C400061E009F460E0C60149830E94B625FF0CCB
:104C50000150110949810115110581F7411115C054
:104C6000F894D6011196ED91FC91129791818C9157
:104C70008095892381831196ED91FC911297928101
:104C80008C9180958923828378940F90DF91CF91C6
:104C90001F910F91FF90EF90DF90CF900895FC014E
:104CA0001386158614861286118610861782168240
:104CB0001582148213820895CF93DF93EC01862F1F
:104CC0006E8760E00E94C11F8E8590E0FC01EF5767
:104CD000FE4FE491E883FC01EC54FE4FE491F0E0D8
:104CE000E951FE4FE491E9831A82CE01DF91CF9121
:104CF0000C944F26FC01128A118E138EDC01A356F0
:104D0000BE4F89E111968C93119714961C92DF0186
:104D1000AE55BE4F1C9212961C92E956FE4F118260
:104D2000108208958CED99E00C947A261092980BDD
:104D3000089510929E0B08951092A60B10929F0B4F
:104D40001092A00B8AEF90E0A0E0B0E08093A10B5E
:104D50009093A20BA093A30BB093A40B0895109271
:104D6000B00BE4E6F0E080818F778083589A599AFF
:104D7000E9EBF0E080818E7F808380818D7F80836E
:104D800081E48093B80085E48093BC0080E2E1EB8D
:104D9000FBE0DF01982F1D929A95E9F7E1EDFBE02A
:104DA000DF01982F1D929A95E9F7E1EFFBE0DF0113
:104DB0001D928A95E9F7089585EC8093BC001092C6
:104DC000B00B0895882349F01092A70B1092A80BFE
:104DD0001092A90B1092AA0B13C08091A70B90916F
:104DE000A80BA091A90BB091AA0B0196A11DB11D12
:104DF0008093A70B9093A80BA093A90BB093AA0B39
:104E00008091A70B9091A80BA091A90BB091AA0B30
:104E1000803A9648A140B10560F01092A70B10921D
:104E2000A80B1092A90B1092AA0B0E94AF2681E04A
:104E3000089580E0089585ED8093BC0081E00E9494
:104E4000E22608C080E00E94E226882319F0109232
:104E5000B00B08958091BC0084FDF4CFF8CF1F9271
:104E60000F920FB60F9211240BB60F922F933F9310
:104E70004F935F936F937F938F939F93AF93BF9362
:104E8000CF93EF93FF93C091B900C87FC03609F468
:104E90009FC058F5C83209F45BC090F4C03109F4E2
:104EA00052C038F4CC2309F4F2C0C83009F0F3C082
:104EB0004AC0C83109F44CC0C03209F0ECC05DC032
:104EC000C03409F473C038F4C03309F45BC0C8338C
:104ED00009F0E1C05AC0C03509F45CC0C83509F416
:104EE0006AC0C83409F0D7C0D4C0C83909F4C5C0F5
:104EF000A8F4C83709F46CC038F4C83609F468C09F
:104F0000C03709F0C8C064C0C83809F4B6C0C03999
:104F100009F464C0C03809F0BEC060C0C03B09F4E9
:104F200084C038F4C03A09F46BC0C83A09F0B3C081
:104F30007CC0C03C09F4A5C0C83C09F4A2C0C83B71
:104F400009F0A9C087C08091120C8093BB0013C0E8
:104F50009091AF0B8091110C981708F09AC0809136
:104F6000AF0BE82FF0E0EF54F44F90819093BB002B
:104F70008F5F8093AF0B85EC81C00E941B27C0938D
:104F8000AB0B89C0C093AB0B84C0C093AB0B0E942A
:104F9000DC2681C08091AF0B9091BB00E82FF0E040
:104FA000EF54F44F90838F5F8093AF0B9091AF0BD2
:104FB0008091110C5FC08091AF0B9091BB00E82FE6
:104FC000F0E0EF54F44F90838F5F8093AF0B61C09C
:104FD00083E08093B00B1092AC0BCDCF8091AC0BE3
:104FE000803208F04AC08091AC0B9091BB00E82F52
:104FF000F0E0EF50F44F90838F5F8093AC0BBBCF0A
:105000008091AC0B803230F4E091AC0BF0E0EF50CB
:10501000F44F10826091AC0BE091130CF091140CE2
:1050200070E081EF9BE009952CC084E08093B00B89
:105030001092AE0B1092AD0BE091150CF091160C86
:1050400009958091AD0B811105C081E08093AD0B76
:105050001092D10B8091AE0BE82FF0E0EF52F44F9D
:1050600090819093BB008F5F8093AE0B9091AE0BBD
:105070008091AD0B981708F47ECF85E88093BC0033
:105080000AC085EC8093BC001092B00B04C0109253
:10509000AB0B0E941B27FF91EF91CF91BF91AF9176
:1050A0009F918F917F916F915F914F913F912F9140
:1050B0000F900BBE0F900FBE0F901F901895505879
:1050C000BB27AA270ED0ADC19ED130F0A3D120F0CE
:1050D00031F49F3F11F41EF493C10EF4E095E7FB09
:1050E00060C1E92FAFD180F3BA1762077307840755
:1050F000950718F071F49EF5DEC10EF4E0950B2EC5
:10510000BA2FA02D0B01B90190010C01CA01A00119
:105110001124FF27591B99F0593F50F4503E68F174
:105120001A16F040A22F232F342F4427585FF3CFB5
:10513000469537952795A795F0405395C9F77EF486
:105140001F16BA0B620B730B840BBAF09150A1F0CF
:10515000FF0FBB1F661F771F881FC2F70EC0BA0F55
:10516000621F731F841F48F4879577956795B795DD
:10517000F7959E3F08F0B3CF9395880F08F09927D5
:10518000EE0F9795879508957FD180F09F3740F473
:1051900091110EF491C160E070E080E89FE3089502
:1051A00026F01B16611D711D811D01C11BC10CD094
:1051B00038C130D140F027D130F021F45F3F19F0F1
:1051C000F0C0511179C11CC13DD198F39923C9F3A5
:1051D0005523B1F3951B550BBB27AA2762177307FD
:1051E000840738F09F5F5F4F220F331F441FAA1FB1
:1051F000A9F333D00E2E3AF0E0E830D09150504071
:10520000E695001CCAF729D0FE2F27D0660F771F1E
:10521000881FBB1F261737074807AB07B0E809F000
:10522000BB0B802DBF01FF2793585F4F2AF09E3F95
:10523000510568F0B6C040C15F3FECF3983EDCF327
:10524000869577956795B795F7959F5FC9F7880F0E
:10525000911D9695879597F90895E1E0660F771F60
:10526000881FBB1F621773078407BA0720F0621BF1
:10527000730B840BBA0BEE1F88F7E095089504D0EA
:105280006894B11119C10895E5D088F09F5790F046
:10529000B92F9927B751A0F0D1F0660F771F881F5B
:1052A000991F1AF0BA95C9F712C0B13081F003D135
:1052B000B1E0089500C1672F782F8827B85F39F0D3
:1052C000B93FCCF3869577956795B395D9F73EF4BA
:1052D00090958095709561957F4F8F4F9F4F089562
:1052E000E89409C097FB3EF4909580957095619580
:1052F0007F4F8F4F9F4F9923A9F0F92F96E9BB2736
:105300009395F695879577956795B795F111F8CFB1
:10531000FAF4BB0F11F460FF1BC06F5F7F4F8F4F1C
:105320009F4F16C0882311F096E911C0772321F012
:105330009EE8872F762F05C0662371F096E8862FAA
:1053400070E060E02AF09A95660F771F881FDAF701
:10535000880F9695879597F90895990F0008550F2E
:10536000AA0BE0E8FEEF16161706E807F907C0F0EB
:1053700012161306E407F50798F0621B730B840BF3
:10538000950B39F40A2661F0232B242B252B21F4CD
:1053900008950A2609F4A140A6958FEF811D811D6D
:1053A000089597F99F6780E870E060E0089588238A
:1053B00071F4772321F09850872B762F07C066234E
:1053C00011F499270DC09051862B70E060E02AF00F
:1053D0009A95660F771F881FDAF7880F969587953D
:1053E00097F908959F3F31F0915020F48795779574
:1053F0006795B795880F911D9695879597F90895AC
:105400009FEF80EC089500240A94161617061806DC
:105410000906089500240A941216130614060506B8
:105420000895092E0394000C11F4882352F0BB0F49
:1054300040F4BF2B11F460FF04C06F5F7F4F8F4FAC
:105440009F4F089557FD9058440F551F59F05F3FE7
:1054500071F04795880F97FB991F61F09F3F79F096
:1054600087950895121613061406551FF2CF469518
:10547000F1DF08C0161617061806991FF1CF86959A
:105480007105610508940895E5DFA0F0BEE7B9173E
:1054900088F4BB279F3860F41616B11D672F782F4C
:1054A0008827985FF7CF869577956795B11D939577
:1054B0009639C8F30895E894BB2766277727CB0170
:1054C00097F908954ADF08F48FEF08950BD0A9CF1C
:1054D0009ADF28F09FDF18F0952309F062CF90CF74
:1054E0001124EACFAFDFA0F3959FD1F3950F50E0E1
:1054F000551F629FF001729FBB27F00DB11D639F86
:10550000AA27F00DB11DAA1F649F6627B00DA11D2B
:10551000661F829F2227B00DA11D621F739FB00DD1
:10552000A11D621F839FA00D611D221F749F332741
:10553000A00D611D231F849F600D211D822F762FDA
:105540006A2F11249F5750408AF0E1F088234AF0D7
:10555000EE0FFF1FBB1F661F771F881F9150504023
:10556000A9F79E3F510570F01CCFA6CF5F3FECF32B
:10557000983EDCF3869577956795B795F795E7950F
:105580009F5FC1F7FE2B880F911D9695879597F920
:105590000895FA01EE0FFF1F30962105310599F1AC
:1055A0006115710561F48038BFE39B0749F1689488
:1055B0009038810561F08038BFEF9B0741F0992357
:1055C00042F5FF3FE1053105210511F1E89408940A
:1055D000E795D901AA2329F4AB2FBE2FF85FD0F3AA
:1055E00010C0FF5F70F4A695E0F7F73950F019F09E
:1055F000FF3A38F49F779F930CD00F9007FC905898
:1056000008953EF0FDCE60E070E080E89FE30895ED
:105610004FE79F775F934F933F932F939ED02F91A8
:105620003F914F915F9152DF05C019F40EF0B9CE52
:1056300042CFE6CE0FDFC8F39638C0F707F80F92D7
:10564000E8942BE33AEA48EB5FE74EDF0F920F92C4
:105650000F924DB75EB70F92C0D0ECECF0E016D0D1
:105660004F915F91EF91FF91E595EE1FFF1F49F07C
:10567000FE57E0684427EE0F441FFA95E1F7419585
:10568000550B32D00F9007FE26C00895DF93CF93BD
:105690001F930F93FF92EF92DF927B018C0168942E
:1056A00005C0DA2EEF011EDFFE01E894A5912591D9
:1056B000359145915591AEF3EF0113DDFE01970150
:1056C000A801DA9479F7DF90EF90FF900F911F9186
:1056D000CF91DF9108959B01AC0160E070E080E81C
:1056E0009FE365CD5ECE7ECEB5DEE8F39923D9F398
:1056F000940F511DBBF39150504094F059F0882302
:1057000032F0660F771F881F91505040C1F79E3FBF
:10571000510544F7880F911D9695879597F908953F
:105720005F3FACF0983E9CF0BB27869577956795D8
:10573000B79508F4B1609395C1F7BB0F58F711F412
:1057400060FFE8CF6F5F7F4F8F4F9F4FE3CFB4CEA7
:105750000EF048CE55CE689424CE7CDEC8F3992353
:10576000D1F3C6F3DF93CF931F930F93FF92C92F0B
:10577000DD2788232AF02197660F771F881FDAF725
:1057800020E030E040E85FEB9FE3883920F0803E86
:1057900030F021968F7794DCE4EFF0E003C090DCEA
:1057A000E1E2F1E073DF8B01BE01EC01FB2E6F57EC
:1057B00071097595771F880B990B94DD28E132E705
:1057C00041E35FE38FDEAF2D9801AE01FF900F91B3
:1057D0001F91CF91DF9185DC24CEFA01DC01AA0F65
:1057E000BB1F9B01AC01BF5728F422273327442756
:1057F00050781FC0B75188F4AB2F002446953795D9
:105800002795011CA395D2F3002069F0220F331FC6
:10581000441FB395DAF30DD052CC61307105A0E886
:105820008A07B94630F49B01AC01662777278827A1
:105830009078309621F020833183428353830895FA
:10584000A29FB001B39FC001A39F01D0B29F700D72
:10585000811D1124911D08950E94202CA59F900D5B
:10586000B49F900DA49F800D911D11240895B7FF42
:105870000C942C2C0E942C2C821B930B0895AA1B99
:10588000BB1B51E107C0AA1FBB1FA617B70710F02B
:10589000A61BB70B881F991F5A95A9F7809590955D
:1058A000BC01CD01089597FB072E16F4009407D094
:1058B00077FD09D00E943F2C07FC05D03EF490955F
:1058C00081959F4F0895709561957F4F0895A1E24E
:1058D0001A2EAA1BBB1BFD010DC0AA1FBB1FEE1F6A
:1058E000FF1FA217B307E407F50720F0A21BB30BB5
:1058F000E40BF50B661F771F881F991F1A9469F731
:1059000060957095809590959B01AC01BD01CF018C
:105910000895052E97FB16F4009407D057FD0DD07F
:105920000E94672C07FC09D07EF4909580957095B5
:1059300061957F4F8F4F9F4F0895509540953095BB
:1059400021953F4F4F4F5F4F0895689401C0E894F1
:105950008F929F92CF93DF930E94B32CDF91CF91D0
:105960009F908F90089588249924F401E401B0E475
:105970009F93AA279A158B049C04ED05FE05CF057D
:10598000D007A10798F4AD2FDC2FCF2FFE2FE92DE4
:10599000982C892E982F872F762F652F542F432FE1
:1059A000322F2227B85031F7BF9127C01B2EBF914D
:1059B000BB27220F331F441F551F661F771F881FE9
:1059C000991F881C991CEE1FFF1FCC1FDD1FAA1FEB
:1059D000BB1F8A149B04EC05FD05CE05DF05A0075F
:1059E000B10748F08A189B08EC09FD09CE09DF09C8
:1059F000A00BB10B21601A94E1F62EF49401AF01D3
:105A0000BE01CD01000C08950F930F7351F0220FCA
:105A1000331F441F551F661F771F881F991F0A9544
:105A2000B1F70F9108952A0D3B1D4C1D5D1D6E1D94
:105A30007F1D801F911F08950790F691E02D099416
:105A40008F929F92AF92BF92CF92DF92EF92FF928E
:105A5000CF93DF93EC01688179818A819B81611505
:105A600071058105910521F464E279ED8BE597E0FC
:105A70002DE133EF41E050E00E94892C49015A01A9
:105A80009B01AC01A7EAB1E40E942C2C6B017C01C4
:105A9000ACEEB4EFA50194010E943A2CC60ED71EBD
:105AA000E81EF91EF7FE06C081E0C81AD108E10819
:105AB00080E8F80AC882D982EA82FB82E894D7F8A3
:105AC000EE24FF24C601DF91CF91FF90EF90DF908D
:105AD000CF90BF90AF909F908F9008950C94202D01
