:100000000C94C5000C94EA0F0C941B100C944C102B
:100010000C947D100C94AE100C94DF100C94101105
:100020000C9441110C94F4000C94F4000C94F40022
:100030000C94960A0C94F4000C94F4000C94F20ABC
:100040000C94F4000C94F4000C94F4000C94F40060
:100050000C94F4000C94F4000C94F4000C94CD0A6D
:100060000C94F4000C940E0A0C94F4000C94F4001C
:100070000C94F4000C94F4000C94F4000C94F40030
:100080000C94F4000C94F4000C94F4000C94F40020
:100090000C94490A0C94F4000C94F4000C94680835
:1000A0000C94F4000C94F4000C94F4000C94F40000
:1000B0000C94F4000C94F4000C94F4000C94F400F0
:1000C0000C94F4000C94F4000C94F4000000080963
:1000D0000000000000000000000000000000000020
:1000E0000000000000000000000000000000000010
:1000F00000000000000000000000000000000001FF
:100100000208101020408004081020400202040859
:1001100010204080010280204004200101020408D8
:10012000102001408040800102080408800410046F
:10013000020105050505030303030101010404038E
:100140000606060606060606010405010501030269
:100150000202020202010202050504040304040172
:10016000030407070700202326292C2F320022250D
:10017000282B2E3134002124272A2D30330050081B
:10018000AB0DE50FD212D712EC1211241FBECFEF28
:10019000D1E2DEBFCDBF12E0A0E0B2E0E6E2FAE2DB
:1001A00000E00BBF02C007900D92A633B107D9F74C
:1001B0001BE0A6E3B2E001C01D92AE3EB107E1F73D
:1001C00011E0CAE8D1E000E006C022970109FE0173
:1001D0000BBF0E94EA14CE37D10780E00807A9F7C9
:1001E0000E94AE0D0C9411150C94000088EE95E061
:1001F0000E94EF0C41E06CE08DEE95E00E94190E3C
:1002000041E06DE08DEE95E00E94190E84E592E0EC
:100210000E94310884E592E00E94F6018093460234
:10022000109247024CEC5CE468ED70E084E592E0EB
:100230000E942307992787FD909590934902809308
:10024000480284E592E00E941B02992787FD909561
:1002500090934B0280934A0261E084E592E00E9411
:10026000E804992787FD909590934D0280934C0266
:1002700084E592E00E94630280934E0210924F0246
:100280006CE484E592E00E949C07992787FD909595
:10029000909351028093500261E084E592E00E94C5
:1002A000D607992787FD9095909353028093520229
:1002B0008EE0E8E3F2E0DF011D928A95E9F74EE077
:1002C00050E0BF0186E492E00E94EE148093360273
:1002D0009093370264E670E080E090E00E94690B42
:1002E0008091360290913702892B19F46BE072E00D
:1002F00002C06CE172E088EE95E00E94810D68EE2C
:1003000073E080E090E00C94690B0895FC01118289
:1003100081E0828387E0838340E050EC64EE70E00C
:100320004483558366837783128A148A138E8FE001
:100330008087168A178A108E83E0818FE55EFE4FD4
:1003400010828091D5079091D607A091D707B091E0
:10035000D807A2608093D5079093D607A093D707BC
:10036000B093D8070895CF93C62F63E08EEE95E043
:100370000E944D0F61E08EEE95E00E944D0F61E00E
:1003800070E080E090E00E94690B8C2F8F770E94D4
:10039000D40F80E0CF910C94D40F1F93CF93DF93B1
:1003A0001F92CDB7DEB7162F63E08EEE95E049833E
:1003B0000E944D0F61E08EEE95E00E944D0F61E0CE
:1003C00070E080E090E00E94690B812F80680E94BD
:1003D000D40F4981842F0E94D40F63E08EEE95E004
:1003E0000F90DF91CF911F910C944D0FCF93DF931E
:1003F000EC0140E061E00E94CD0140E861E0CE0107
:100400000E94CD0141E861E0CE010E94CD014FEF95
:1004100063E2CE010E94CD0161E0CE010E94B301F2
:10042000813821F481E08B8F80E002C01B8E81E057
:10043000DF91CF910895CF93DF93EC018B8D8823CB
:10044000E1F06DE1CE010E94B3019B81963041F055
:10045000482F4B7F6DE1CE010E94CD0182E001C0AB
:100460008FEF9B81963061F06DE1CE010E94B30168
:1004700082FD05C01A8A80E003C08FEF01C081E0D1
:10048000DF91CF910895CF93DF93EC018B8D88237B
:10049000A1F06DE1CE010E94B301482F44606DE1EF
:1004A000CE010E94CD016DE1CE010E94B30182FF19
:1004B00006C081E08A8B80E003C08FEF01C081E03D
:1004C000DF91CF9108951F93CF93DF93EC011B8DA4
:1004D000113089F46DE10E94B301482F42606DE153
:1004E000CE010E94CD016DE1CE010E94B30181FFDA
:1004F00014C01C8B14C060E30E94B301482F4061FC
:1005000060E3CE010E94CD0160E3CE010E94B30101
:1005100084FF03C081E08C8B02C081E001C080E0D9
:10052000DF91CF911F910895CF93DF93EC018B8DD5
:10053000882391F06EE1CE010E94B301282F30E0B4
:1005400044E0359527954A95E1F72B83265081E0C5
:10055000273018F480E001C08FEFDF91CF9108952C
:10056000CF93DF93EC018B8D882389F06DE1CE0171
:100570000E94B301282F30E056E0359527955A9513
:10058000E1F7298381E0233019F080E001C08FEF8B
:10059000DF91CF910895CF92DF92FF920F931F9337
:1005A000CF93DF931F92CDB7DEB76C01062F61E0CA
:1005B0000E94B301F82EF601838D811105C0C6019A
:1005C0000E94F601182FC4C041E861E0C6010E94F4
:1005D000CD016DE1C6010E94B301482F6EE1C60155
:1005E00049830E94B301182F49810930D9F030F4B2
:1005F000073091F0A0F4063031F506C00B30C1F0A1
:10060000A0F00C3001F51CC01F761066C6014983AE
:100610000E944302498117C01F77106714C01F78DA
:10062000106811C01F7910690EC01F7A106A0BC0C4
:100630001F7B106BC60149830E94B002498102C032
:100640001F7C106C41606DE1C6010E94CD01412FFD
:1006500047606EE1C6010E94CD016DE1C6010E94B6
:10066000B301182F6EE1C6010E94B3010930C9F130
:1006700038F4073001F150F5063009F066C008C0C3
:100680000B3009F446C0C0F10C3009F05EC04DC01B
:10069000282F30E014E0359527951A95E1F726309C
:1006A000310511F012E054C082FFFCCFF6018289BF
:1006B0008130C1F74CC0282F30E0B4E03595279544
:1006C000BA95E1F72730310569F720C0282F30E0CF
:1006D000A4E035952795AA95E1F72830310511F763
:1006E00015C0282F30E0F4E035952795FA95E1F70D
:1006F00029303105B9F60AC0282F30E0E4E03595FD
:100700002795EA95E1F72A30310561F682FD1FC091
:10071000C9CF282F30E074E0359527957A95E1F719
:100720002B30310509F0BECF0BC0282F30E064E03C
:10073000359527956A95E1F72C30310509F0B2CF50
:1007400082FFB0CF10FFAECF02C011E001C010E0B9
:100750004F2D61E0C6010E94CD01802F8650873069
:1007600018F4F601038310E0812F0F90DF91CF91F1
:100770001F910F91FF90DF90CF900895CF92DF925D
:10078000EF92FF920F931F93CF93DF931F92CDB7FA
:10079000DEB76C018B0161E00E94B301E82EF60127
:1007A000838D811105C0C6010E94F601F82E02C09A
:1007B00032E0F32E41E861E0C6010E94CD016DE117
:1007C000C6010E94B301482F01301105A1F020F0AD
:1007D00002301105A9F412C04F73C60149830E946B
:1007E0009402F601938149819B3009F402C09C3048
:1007F00039F4416005C04F77406402C04F7B4068C8
:100800006DE1C6010E94CD016DE1C6010E94B301F8
:1008100001301105F1F020F00230110581F524C0FE
:10082000682F70E026E0759567952A95E1F7672BAC
:1008300069F5F60193819B3029F4F82EF094F1E0EC
:10084000FF2224C09C3009F5F82EF09481E0F822B4
:100850001DC0282F30E096E0359527959A95E1F751
:100860002130310599F411C0282F30E086E035950C
:1008700027958A95E1F72230310541F406C003300F
:10088000110520F0FF24F39403C0F12CF60101833D
:100890004E2D61E0C6010E94CD018F2D0F90DF919A
:1008A000CF911F910F91FF90EF90DF90CF9008951F
:1008B000FF920F931F93CF93DF93EC01162F61E00C
:1008C0000E94B301F82E8B8D811105C0CE010E94CC
:1008D000F601082F6AC041E861E0CE010E94CD0117
:1008E0006DE1CE010E94B301123061F018F41130B5
:1008F00089F405C0133049F0143061F409C08F7CCD
:10090000886008C0877D806105C08F7D886102C0D6
:10091000877E8062482F6DE1CE010E94CD016DE19E
:10092000CE010E94B3011230B1F018F41130D1F5AC
:1009300005C01330E9F01430A9F527C0282F30E0A6
:10094000E3E035952795EA95E1F7277033272130C5
:10095000310551F127C0282F30E073E035952795F8
:100960007A95E1F72770332722303105D9F41CC07E
:10097000282F30E063E0359527956A95E1F72770D9
:1009800033272330310571F40FC0282F30E053E0B6
:10099000359527955A95E1F727703327243031058F
:1009A00009F402C002E001C000E0812F81508430D0
:1009B00010F001E001C01A834F2D61E0CE010E94CA
:1009C000CD01802FDF91CF911F910F91FF9008955E
:1009D0000F931F93CF93DF93EC01062F61E00E94EA
:1009E000B301182F8B8D811103C0CE010E94F60137
:1009F00041E861E0CE010E94CD010530D9F168F4F3
:100A0000023009F120F4013009F049C116C0033069
:100A100001F1043009F043C127C0083009F441C096
:100A200030F4063069F1073009F039C12FC00930C0
:100A3000F1F10A3009F033C140C061E0CE010E94FB
:100A400058046CE00BC061E0CE010E9458046CE0D9
:100A500022C061E0CE010E9458046AE0CE010E94EB
:100A6000CB0260E070E033C061E0CE010E94580428
:100A70006CE028C061E0CE010E9458046AE00BC01F
:100A800061E0CE010E9458046BE01CC061E0CE0121
:100A90000E94580469E0CE010E94CB0261E070E040
:100AA00016C061E0CE010E94580469E00BC061E00D
:100AB000CE010E94580468E005C061E0CE010E94AA
:100AC000580466E0CE010E94CB0262E070E0CE01E5
:100AD0000E94BE03E8C0282F30E043E035952795FB
:100AE0004A95E1F72130310509F0DBC06EE1CE0116
:100AF0000E94B30190E024E0959587952A95E1F74F
:100B000001E00C9709F0F4C0C8C0282F30E003E0E2
:100B1000359527950A95E1F72930310509F0C1C0CF
:100B200017C0282F30E0B3E035952795BA95E1F747
:100B30002130310509F0B5C027C0282F30E0A3E0EF
:100B400035952795AA95E1F72131310509F0A9C01E
:100B50006EE1CE010E94B301282F30E0F4E035951C
:100B60002795FA95E1F701E02C30310509F0C0C076
:100B700094C0282F30E0E3E035952795EA95E1F71A
:100B80002930310509F08DC06EE1CE010E94B3011C
:100B9000282F30E074E0359527957A95E1F701E04C
:100BA0002A30310509F0A4C078C0282F30E063E076
:100BB000359527956A95E1F72131310509F071C026
:100BC0006EE1CE010E94B301282F30E054E035954C
:100BD00027955A95E1F701E02B30310509F088C0DF
:100BE0005CC0282F30E043E0359527954A95E1F722
:100BF0002930310509F055C00BC0282F30E093E0B3
:100C0000359527959A95E1F72131310509F049C0CD
:100C10006EE1CE010E94B301282F30E084E03595CB
:100C200027958A95E1F701E02930310509F060C088
:100C300034C0282F30E003E0359527950A95E1F779
:100C40002131310571F56EE1CE010E94B301282FEB
:100C500030E0B4E035952795BA95E1F701E028300A
:100C6000310509F045C019C0282F30E0A3E03595C3
:100C70002795AA95E1F72131310599F46EE1CE016E
:100C80000E94B301282F30E0F4E035952795FA95BE
:100C9000E1F701E02630310559F500E029C00FEFFA
:100CA00027C001E025C06DE1CE010E94B3010530EF
:100CB00009F45FCF68F4023009F427CF18F401304B
:100CC00081F709CF033009F42CCF043051F735CF29
:100CD000083009F492CF30F4063009F466CF0730BB
:100CE00001F77FCF093009F4A4CF0A30D1F6BCCF89
:100CF000412F61E0CE010E94CD01802FDF91CF9185
:100D00001F910F910895493989ED580782EE6807C0
:100D1000710509F494C008F04EC0493989E95807B3
:100D200088ED6807710509F48AC0F8F4411580E67A
:100D3000580788ED6807710509F481C038F44C3C08
:100D40005C44684D710509F07CC079C0433383E78A
:100D5000580788ED6807710509F471C04636564892
:100D6000684D710509F06DC06AC04115510589EDE6
:100D70006807710509F463C078F44C3C8CEA5807A5
:100D800088ED6807710509F45AC04115504C684D4B
:100D9000710509F056C053C04E3185EC580781EEFD
:100DA0006807710509F44BC04C355F44624E71050C
:100DB00009F047C044C04F3882E0580785EE680705
:100DC0007105E9F1D8F444318EEE580783EE6807D7
:100DD0007105A9F130F4473D5346634E710589F51D
:100DE0002EC0413588E7580784EE6807710539F150
:100DF0004115504C644E710521F521C0473481EAFC
:100E0000580786EE68077105D1F068F44C3C8CE811
:100E1000580785EE6807710591F04A305741664ED4
:100E2000710579F40CC045388BE2580787EE6807E6
:100E3000710529F0423C554B674E710511F481E074
:100E4000089580E008957F928F929F92AF92BF9213
:100E5000CF92DF92EF92FF920F931F93CF93DF9386
:100E6000EC016A017B0161E00E94B301782E8B8D59
:100E7000813011F441E801C041E061E0CE010E94FF
:100E8000CD014E2D66E0CE010E94CD014D2D67E0D3
:100E9000CE010E94CD014C2D68E0CE010E94CD0113
:100EA00066E0CE010E94B301082F67E0CE010E94E8
:100EB000B301182F902E812CA12CB12CBA2CA92C67
:100EC000982C882468E0CE010E94B301712F60E065
:100ED000082F10E020E030E0060F171F211D311D04
:100EE000080D191D2A1D3B1D0C151D052E053F055E
:100EF00031F4CC82DD82EE82FF8210E001C011E08D
:100F0000B701A601CE010E948306811101C01FEF27
:100F1000472D61E0CE010E94CD01812FDF91CF915D
:100F20001F910F91FF90EF90DF90CF90BF90AF9007
:100F30009F908F907F9008950F931F93CF93DF938F
:100F4000EC01162F61E00E94B301082F8B8D8130D8
:100F500011F441E801C041E061E0CE010E94CD0101
:100F60001C3439F01D3419F0183439F404C08FE002
:100F700003C0188602C087E08887488569E0CE01F3
:100F80000E94CD0169E0CE010E94B30111E0988575
:100F9000891301C010E0402F61E0CE010E94CD0115
:100FA000812FDF91CF911F910F9108950F931F9380
:100FB000CF93DF93EC01162F698B61E00E94B301A0
:100FC000082F8B8D813011F441EC01C041E061E0CC
:100FD000CE010E94CD01412F63E3CE010E94CD01DD
:100FE00040E064E3CE010E94CD0163E3CE010E94A4
:100FF000B301182F402F61E0CE010E94CD0181E0A6
:101000009989191301C080E0DF91CF911F910F9151
:1010100008950F931F93CF93DF93EC01162F6C313C
:10102000D0F461E00E94B301082F8B8D813011F460
:1010300041E801C041E061E0CE010E94CD01412FB5
:101040006BE0CE010E94CD01402F61E0CE010E94F5
:10105000CD0180E001C08FEFDF91CF911F910F9103
:101060000895CF93DF93EC0161E086E10E944A0C82
:1010700061E086E10E94630C81E08093EE050E94AE
:10108000110F81E00E94340F84E00E94420F80E043
:101090000E943D0F67E1CE01DF91CF910C940908CA
:1010A00084E592E00C94860185ED8093BC0081E19B
:1010B00097E22091BC0024FF02C00197D1F7109263
:1010C0007805089585EC8093BC001092780508950A
:1010D0001F920F920FB60F9211240BB60F922F93FF
:1010E0003F934F935F936F937F938F939F93AF93B0
:1010F000BF93EF93FF938091B900887F803609F406
:1011000095C058F5883209F45BC090F4803109F439
:1011100052C038F4882309F4E8C0883009F0E7C0E9
:101120004AC0883109F44CC0803209F0E0C0DDC00B
:10113000803409F469C038F4803309F4D6C08833A8
:1011400009F0D5C052C0803509F452C0883509F481
:1011500060C0883409F0CBC0C8C0883909F4BBC06E
:10116000A8F4883709F462C038F4883609F45EC000
:10117000803709F0BCC05AC0883809F4ACC0803947
:1011800009F45AC0803809F0B2C056C0803B09F457
:101190007AC038F4803A09F461C0883A09F0A7C0EF
:1011A00072C0803C09F49BC0883C09F498C0883B1D
:1011B00009F09DC07DC08091DA058093BB0013C00B
:1011C000909177058091D905981708F08EC080918D
:1011D0007705E82FF0E0E758FA4F90819093BB0035
:1011E0008F5F8093770585EC77C00E9462087FC08F
:1011F000809177059091BB00E82FF0E0E758FA4F17
:1012000090838F5F80937705909177058091D905C2
:101210005FC0809177059091BB00E82FF0E0E75820
:10122000FA4F90838F5F809377055FC083E0809350
:10123000780510927405D7CF80917405803208F03C
:101240004AC0809174059091BB00E82FF0E0E7540C
:10125000FA4F90838F5F80937405C5CF809174059A
:10126000803230F4E0917405F0E0E754FA4F1082D8
:1012700060917405E091DB05F091DC0570E089EB8D
:1012800095E009952CC084E080937805109276054E
:1012900010927505E091DD05F091DE0509958091CC
:1012A0007505811105C081E080937505109299053F
:1012B00080917605E82FF0E0E756FA4F9081909301
:1012C000BB008F5F809376059091760580917505C0
:1012D000981708F488CF85E88093BC0008C085EC97
:1012E0008093BC001092780502C00E945408FF91C0
:1012F000EF91BF91AF919F918F917F916F915F918E
:101300004F913F912F910F900BBE0F900FBE0F90FA
:101310001F901895CF92DF92EF92FF926B017C01A4
:10132000411134C088E00E94100CC701B60122E0D0
:1013300030E040E050E00E945714305F414F5F4F73
:10134000CA01B901A70196010E945714DA01C90127
:101350000197A109B109892F9A2FAB2FBB27A7FDB0
:10136000BA958093C50021502093C4008091C1009C
:1013700080618093C1008091C10088608093C1002A
:101380008091C10080688093C10033C080E10E94D9
:10139000100CC701B60122E030E040E050E00E94AE
:1013A0005714305F414F5F4FCA01B901A701960141
:1013B0000E945714DA01C9010197A109B109892FC7
:1013C0009A2FAB2FBB27A7FDBA958093CD00215054
:1013D0002093CC008091C90080618093C9008091E6
:1013E000C90088608093C9008091C900806880939B
:1013F000C900FF90EF90DF90CF900895611107C072
:101400009091C00095FFFCCF8093C6000895909105
:10141000C80095FFFCCF8093CE0008951F920F92D5
:101420000FB60F9211242F933F934F935F936F93B7
:101430007F938F939F93AF93BF93EF93E091C600F9
:101440002091E5053091E605C901019660E072E062
:101450000E9421144091E3055091E40584179507FB
:1014600041F0D901AA51B64FEC939093E6058093D1
:10147000E505EF91BF91AF919F918F917F916F9112
:101480005F914F913F912F910F900FBE0F901F9042
:1014900018951F920F920FB60F9211242F933F931E
:1014A0004F935F936F937F938F939F93AF93BF936C
:1014B000EF93E091CE002091E1053091E205C90162
:1014C000019660E072E00E9421144091DF05509186
:1014D000E0058417950741F0D901AA51B84FEC9364
:1014E0009093E2058093E105EF91BF91AF919F91B9
:1014F0008F917F916F915F914F913F912F910F90BD
:101500000FBE0F901F9018950C94FE091F93CF9358
:10151000DF93162FEC0103C0612F0E94FE09899111
:101520008111FACFDF91CF911F9108951F920F92F1
:101530000FB60F9211240BB60F922F933F934F9338
:101540005F936F937F938F939F93AF93BF93EF932B
:10155000FF93F89481E080930A02E0E6F0E0808156
:101560008068808380818F7B808360E083E00E943D
:10157000630C7894FF91EF91BF91AF919F918F9100
:101580007F916F915F914F913F912F910F900BBE83
:101590000F900FBE0F901F9018951F920F920FB6CD
:1015A0000F9211248F939F93AF93BF938091E60B7B
:1015B0009091E70BA091E80BB091E90B0196A11D6A
:1015C000B11D8093E60B9093E70BA093E80BB093CB
:1015D000E90BBF91AF919F918F910F900FBE0F902C
:1015E0001F9018951F920F920FB60F9211248F9390
:1015F0009F93AF93BF938091EA0B9091EB0BA091D7
:10160000EC0BB091ED0B0196A11DB11D8093EA0B7F
:101610009093EB0BA093EC0BB093ED0BBF91AF91BC
:101620009F918F910F900FBE0F901F9018958F92E2
:101630009F92AF92BF92CF92DF92EF92FF920F9361
:101640001F93CF93DF932FB7F8948091E60B90917F
:10165000E70BA091E80BB091E90B2FBF9C01AD0106
:1016600060E070E080E090E001E00E94D214490167
:10167000D42FC52FB62FA72FF82FE92F02E00E94F5
:10168000D21459016A017B018C0194014D2F5C2F0A
:101690006B2F7A2F8F2F9E2F0E94E114E9E0AE2E40
:1016A000B12CC12CD12CE12CF12C00E010E00E94D7
:1016B0007514952FB901842FDF91CF911F910F9150
:1016C000FF90EF90DF90CF90BF90AF909F908F9062
:1016D00008958F929F92AF92BF92CF92DF92EF9236
:1016E000FF924B015C0107C00E94170B6C157D0532
:1016F0008E059F0520F40E94170B6B017C010E9450
:10170000170B6C197D098E099F09681579058A05E3
:101710009B0550F3FF90EF90DF90CF90BF90AF907C
:101720009F908F900895BC01049768F080E090E04E
:101730000E941C1326E636E646EE5FE30E94AA13DB
:101740000E94F01202C0660F771F6150710961F0AC
:101750006150710949F0FB01EE0FFF1F31978FB700
:10176000F8943197F1F78FBF0895789484B7877F05
:1017700084BF1092E60B1092E70B1092E80B1092C8
:10178000E90B84B5826084BD84B5816084BD85B574
:10179000826085BD85B5816085BDEEE6F0E0808123
:1017A00081608083E1E8F0E08081826080838081D5
:1017B00081608083E0E8F0E0808181608083E1EBFC
:1017C000F0E0808184608083E1E9F0E080818460E2
:1017D0008083E0EBF0E0808181608083E0E9F0E0ED
:1017E000808181608083E4E6F0E080818E7F808369
:1017F000ECE7F0E080818F77808380818064808354
:10180000EAE7F0E080818460808380818260808369
:101810008081806880831092C1001092C900089571
:101820009091E705982B9093E70580FF32C0809157
:1018300064008E7F8093640080917C008F7780931A
:101840007C0080917C00806480937C0080917A0091
:10185000846080937A0080917A00826080937A001D
:1018600080917A00806880937A00809164008F77FD
:1018700080936400809164008B7F809364008091EA
:1018800064008D7F80936400809165008E7F8093DB
:101890006500089590E0FC01E150FF4F2491FC01A8
:1018A000EE5CFE4FE491EE2369F0F0E0EB58FE4F62
:1018B000A491B0E08C91611103C02095822301C0F6
:1018C000822B8C93089590E0FC01E453FF4F249108
:1018D000FC01E150FF4F3491FC01EE5CFE4F84911E
:1018E0008823B1F1222331F1233021F4909180003B
:1018F0009F7705C0243031F4909180009F7D9093B4
:10190000800018C0213019F494B59F7704C02230AC
:1019100021F494B59F7D94BD0DC0263021F49091A3
:10192000B0009F7705C0273029F49091B0009F7DCB
:101930009093B000E82FF0E0E359FE4FA491B0E09F
:101940008C91611103C03095832301C0832B8C934C
:10195000089590E0FC01E453FF4F2491FC01E15015
:10196000FF4F3491FC01EE5CFE4F8491882399F186
:10197000222331F1233021F4909180009F7705C01C
:10198000243031F4909180009F7D9093800018C0A6
:10199000213019F494B59F7704C0223021F494B516
:1019A0009F7D94BD0DC0263021F49091B0009F77AB
:1019B00005C0273029F49091B0009F7D9093B0002E
:1019C000E82FF0E0EB59FE4FE491F0E080818323B3
:1019D00021E030E011F420E030E0C9010895FC017D
:1019E000408160E076E980E090E00E948A0961E051
:1019F00087E10E944A0C61E087E10E94630C61E08C
:101A00008BE00E944A0C60E08BE00E94630C61E076
:101A10008DE20E944A0C60E08DE20C94630C1F93EF
:101A2000CF93DF93EC01162F488160E076E980E0E8
:101A300090E00E948A0961E087E10E94630C60E007
:101A40008BE00E94630C6881812F0E94840A63E00E
:101A500070E080E090E00E94690B61E08BE0DF9134
:101A6000CF911F910C94630C0F931F93CF93DF932F
:101A7000EC018B01488160E076E980E090E00E9413
:101A80008A0961E087E10E94630C60E08BE00E94BC
:101A9000630C6881C8010E94860A63E070E080E000
:101AA00090E00E94690B61E08BE0DF91CF911F9184
:101AB0000F910C94630CCF93DF93EC01488160E0AD
:101AC00076E980E090E00E948A0961E087E10E9467
:101AD000630C60E08BE00E94630C6DE0CE010E941D
:101AE0000F0D6AE0CE010E940F0D63E070E080E010
:101AF00090E00E94690B61E08BE0DF91CF910C9444
:101B0000630C0F931F93CF93DF93EC018B014881FC
:101B100060E076E980E090E00E948A0961E087E178
:101B20000E94630C60E08BE00E94630CB801CE0160
:101B30000E94340DCE010E945B0D63E070E080E0F6
:101B400090E00E94690B61E08BE0DF91CF911F91E3
:101B50000F910C94630C1092E80508950E94B50B48
:101B60008DEE95E00E94090F853440F061E081E33D
:101B70000E944A0C61E081E30E94630C61E070E026
:101B80008DEE95E00E94510E8130B1F48091D50721
:101B90009091D607A091D707B091D807906880930D
:101BA000D5079093D607A093D707B093D80760E0E6
:101BB00081E090E00E9403158091D5079091D607AF
:101BC000A091D707B091D807A1FF22C061E086E1BC
:101BD0000E944A0C61E086E10E94630C0E94110F92
:101BE00081E00E94340F84E00E94420F80E00E9456
:101BF0003D0F0E94300F63E08EEE95E00E944D0F86
:101C000061E086E10E944A0C60E086E10E94630C7C
:101C10008DEE95E00E94540E6093E9057093EA05FD
:101C20008093EB059093EC050E94F6000E948501DD
:101C3000FDCF1F93CF93DF931F92CDB7DEB7162F43
:101C400061E0812F49830E944A0C4981413011F49F
:101C500061E003C0411108C060E0812F0F90DF9167
:101C6000CF911F910C94630C0F90DF91CF911F9136
:101C7000089561E087E10E944A0C61E084E20E94DD
:101C80004A0C61E085E20E944A0C61E087E10E9413
:101C9000630C61E084E20E94630C61E085E20C94D5
:101CA000630CCB010C94FB14CF92DF92EF92FF9266
:101CB0000F931F93CF93DF93CDB7DEB7C35FD109E7
:101CC0000FB6F894DEBF0FBECDBF40E06CE08DEEE6
:101CD00095E00E94190E40E06DE08DEE95E00E94C7
:101CE000190E6E0181EEC80ED11C6DE0C6010E9476
:101CF0009D1261E08CE00E944A0C61E08CE00E9441
:101D0000630CC6010E94721141E06DE08DEE95E01A
:101D10000E94190E6AE070E080E090E00E94690B7A
:101D200040E063E3C6010E94501262E370E080E08D
:101D300090E00E94690B7E0191E8E90EF11C8E0192
:101D40000F5F1F4FC6010E941912E2E0EE1AF10860
:101D5000F7018083118261E070E080E090E00E94F2
:101D6000690BE016F10671F7FE017196DE01AF57BF
:101D7000BF4F80E7E80EF11C9D01819191918D93F9
:101D80009D93EE15FF05C9F7FE01EF51FF4F81E06E
:101D900090E0A0E0B0E0C12CD12C760152914291AC
:101DA0004130510521F4C80ED91EEA1EFB1E880FD2
:101DB000991FAA1FBB1FE217F30781F79FEFC916F0
:101DC000D906E906F90619F4C12CD12C760160E098
:101DD0008CE00E94630C40E06CE08DEE95E00E9488
:101DE000190E40E06DE08DEE95E00E94190EB601EF
:101DF000C701CD50DF4F0FB6F894DEBF0FBECDBF89
:101E0000DF91CF911F910F91FF90EF90DF90CF90D6
:101E100008958FED90E00E94FB148F3F09F480E05D
:101E2000089561E08EE10E944A0C61E08FE10E941A
:101E30004A0C61E08DE10E944A0C60E08EE10E9454
:101E4000630C60E08FE10E94630C61E08DE10E9411
:101E5000630C8CB580618CBD8CB580648CBD08959D
:101E60008CB58F7B8CBD0895811103C08CB58062C9
:101E700002C08CB58F7D8CBD08959CB5937F982B47
:101E80009CBD08952CB5982F93702C7F922B9CBDF0
:101E90009DB580FB90F99DBD0895CF93C62F61E05D
:101EA0008DE10E944A0C61E082E20E944A0C61E0EE
:101EB0008CE20E944A0C61E08DE10E94630C61E0BB
:101EC00082E20E94630C61E08AE20E94630CC130EE
:101ED00049F028F0C23049F0C330F1F40CC060E0A2
:101EE0008DE117C060E082E214C08DEE95E00E94A3
:101EF000390E60E00DC061E08DE10E94630C61E08D
:101F000082E20E94630C8DEE95E00E94390E61E042
:101F10008CE2CF910C94630CCF9108958091D507FA
:101F20009091D607A091D707B091D807A1FF0CC018
:101F30008091EE05811108C061E086E10E944A0CA3
:101F400061E086E10E94630C8091EF05811108C079
:101F500061E08BE10E944A0C61E08BE10C94630C20
:101F600008958091D5079091D607A091D707B09199
:101F7000D807A1FF0CC08091EE05811108C061E077
:101F800086E10E944A0C60E086E10E94630C809129
:101F9000EF05811108C061E08BE10E944A0C60E00E
:101FA0008BE10C94630C0895CF93C82F8EEE95E0CF
:101FB0000E948E0FCEBD0DB407FEFDCF8EEE95E0D4
:101FC0000E94B10F8EB5CF9108951092EF05109237
:101FD000EE0508951F920F920FB60F9211240BB6C3
:101FE0000F922F933F934F935F936F937F938F93B2
:101FF0009F93AF93BF93EF93FF938091F0059091E0
:10200000F105892B29F0E091F005F091F105099592
:10201000FF91EF91BF91AF919F918F917F916F91C0
:102020005F914F913F912F910F900BBE0F900FBE7C
:102030000F901F9018951F920F920FB60F921124B8
:102040000BB60F922F933F934F935F936F937F93B2
:102050008F939F93AF93BF93EF93FF938091F2057C
:102060009091F305892B29F0E091F205F091F305A9
:102070000995FF91EF91BF91AF919F918F917F91C2
:102080006F915F914F913F912F910F900BBE0F90E9
:102090000FBE0F901F9018951F920F920FB60F92C0
:1020A00011240BB60F922F933F934F935F936F932F
:1020B0007F938F939F93AF93BF93EF93FF93809101
:1020C000F4059091F505892B29F0E091F405F09144
:1020D000F5050995FF91EF91BF91AF919F918F9178
:1020E0007F916F915F914F913F912F910F900BBE18
:1020F0000F900FBE0F901F9018951F920F920FB662
:102100000F9211240BB60F922F933F934F935F932F
:102110006F937F938F939F93AF93BF93EF93FF93AF
:102120008091F6059091F705892B29F0E091F6054D
:10213000F091F7050995FF91EF91BF91AF919F91B4
:102140008F917F916F915F914F913F912F910F9060
:102150000BBE0F900FBE0F901F9018951F920F92FD
:102160000FB60F9211240BB60F922F933F934F93FC
:102170005F936F937F938F939F93AF93BF93EF93EF
:10218000FF938091F8059091F905892B29F0E09152
:10219000F805F091F9050995FF91EF91BF91AF9185
:1021A0009F918F917F916F915F914F913F912F916F
:1021B0000F900BBE0F900FBE0F901F9018951F929F
:1021C0000F920FB60F9211240BB60F922F933F93DD
:1021D0004F935F936F937F938F939F93AF93BF932F
:1021E000EF93FF938091FA059091FB05892B29F0DD
:1021F000E091FA05F091FB050995FF91EF91BF91F0
:10220000AF919F918F917F916F915F914F913F918E
:102210002F910F900BBE0F900FBE0F901F9018952F
:102220001F920F920FB60F9211240BB60F922F939D
:102230003F934F935F936F937F938F939F93AF934E
:10224000BF93EF93FF938091FC059091FD05892B3F
:1022500029F0E091FC05F091FD050995FF91EF91C2
:10226000BF91AF919F918F917F916F915F914F91AE
:102270003F912F910F900BBE0F900FBE0F901F90AC
:1022800018951F920F920FB60F9211240BB60F9252
:102290002F933F934F935F936F937F938F939F936E
:1022A000AF93BF93EF93FF938091FE059091FF054D
:1022B000892B29F0E091FE05F091FF050995FF912A
:1022C000EF91BF91AF919F918F917F916F915F91AE
:1022D0004F913F912F910F900BBE0F900FBE0F901B
:1022E0001F901895CF92DF92EF92FF921F93CF939A
:1022F000DF93EC0160E08A850E944A0C0E94170B74
:102300006B017C011EE7115089F182E090E00E9490
:10231000930B0E94170B6C157D058E059F0520F40D
:102320000E94170B6B017C018A850E94A90C892BE6
:10233000F9F40E94170B6C197D098E099F09643FFF
:10234000714081059105F8F213C00E94170B6B01D3
:102350007C011130C1F10E94170B6C197D098E09A7
:102360009F09643F714081059105D0F010E02BC0BA
:1023700061E08A850E944A0C60E08A850E94630CB5
:1023800080E991E00E94930B0E94170B6B017C0186
:102390008A850E94A90C11E0892BD9F210E0D9CFCF
:1023A0008A850E94A90C11E0892B09F010E08AE0CF
:1023B00090E00E94930B0E94170B6C157D058E0513
:1023C0009F0538F6C2CF812FDF91CF911F91FF90EB
:1023D000EF90DF90CF9008950F931F93CF93DF93EB
:1023E000EC01E989FA8980819C85892B8083ED85C0
:1023F000FE8590818C85809589238083062F0170CE
:1024000010E0F801EF5CFD4F808190E00E94930B9B
:10241000ED85FE8580819C85892B8083F801ED5CAC
:10242000FD4F808190E0DF91CF911F910F910C942F
:10243000930BCF93DF93EC01E989FA8980819C8526
:10244000892B8083ED85FE8590818C8580958923FD
:10245000808381E090E00E94930BE989FA89908162
:102460008C8580958923808360E08A850E944A0C50
:1024700061E08A850E94630C83E090E00E94930BE8
:10248000EF85F88990818C859823C1E009F4C0E03C
:1024900082E390E00E94930B8C2FDF91CF910895FF
:1024A000CF92DF92EF92FF920F931F93CF93DF9320
:1024B0001F92CDB7DEB76C01E62E08E010E0FF24D6
:1024C000F3949F2D9E2161E009F460E0C6014983E9
:1024D0000E94EC11FF0C01501109498101151105F1
:1024E00081F7411113C060E0F60182850E944A0C19
:1024F00060E0F60182850F90DF91CF911F910F91DF
:10250000FF90EF90DF90CF900C94630C0F90DF91D1
:10251000CF911F910F91FF90EF90DF90CF90089592
:10252000FC018FEF80871186178216821582148234
:1025300013821282118210820895DC011A966C9324
:102540001A9770E0FB01EE5CFE4F84911B968C9312
:102550001B97FB01E150FF4F64911C966C931C97F5
:1025600090E0FC01E359FE4FE4911D96EC931D971A
:102570001E961C921E97FC01EB59FE4FE4911F968C
:10258000EC931F9750961C925097FC01EB58FE4F0E
:10259000849151968C93519752961C925297CD01EB
:1025A0000C9490126DE080E096E00C949D121092D5
:1025B00018060895FC01128A118E138EDC01A356B1
:1025C000BE4F89E111968C93119714961C92EE558B
:1025D000FE4F10821282089589E196E00C94DA127F
:1025E00098D088F09F5790F0B92F9927B751A0F055
:1025F000D1F0660F771F881F991F1AF0BA95C9F797
:1026000012C0B13081F09FD0B1E008959CC0672F17
:10261000782F8827B85F39F0B93FCCF38695779546
:102620006795B395D9F73EF490958095709561952F
:102630007F4F8F4F9F4F0895E89409C097FB3EF45A
:1026400090958095709561957F4F8F4F9F4F9923FF
:10265000A9F0F92F96E9BB279395F695879577957D
:102660006795B795F111F8CFFAF4BB0F11F460FF3D
:102670001BC06F5F7F4F8F4F9F4F16C0882311F095
:1026800096E911C0772321F09EE8872F762F05C0A9
:10269000662371F096E8862F70E060E02AF09A9544
:1026A000660F771F881FDAF7880F9695879597F939
:1026B000089597F99F6780E870E060E008959FEFC4
:1026C00080EC089500240A941616170618060906C9
:1026D000089500240A941216130614060506089598
:1026E000092E0394000C11F4882352F0BB0F40F420
:1026F000BF2B11F460FF04C06F5F7F4F8F4F9F4F60
:10270000089557FD9058440F551F59F05F3F71F0E1
:102710004795880F97FB991F61F09F3F79F0879548
:102720000895121613061406551FF2CF4695F1DFD1
:1027300008C0161617061806991FF1CF8695710561
:10274000610508940895E894BB2766277727CB0195
:1027500097F908950BD0C4CFB5DF28F0BADF18F091
:10276000952309F0A6CFABCF1124EECFCADFA0F39B
:10277000959FD1F3950F50E0551F629FF001729F16
:10278000BB27F00DB11D639FAA27F00DB11DAA1F35
:10279000649F6627B00DA11D661F829F2227B00D82
:1027A000A11D621F739FB00DA11D621F839FA00D0D
:1027B000611D221F749F3327A00D611D231F849F5D
:1027C000600D211D822F762F6A2F11249F575040B4
:1027D0008AF0E1F088234AF0EE0FFF1FBB1F661F4F
:1027E000771F881F91505040A9F79E3F510570F008
:1027F00060CFAACF5F3FECF3983EDCF386957795E8
:102800006795B795F795E7959F5FC1F7FE2B880F02
:10281000911D9695879597F90895AA1BBB1B51E1C9
:1028200007C0AA1FBB1FA617B70710F0A61BB70B40
:10283000881F991F5A95A9F780959095BC01CD01E5
:10284000089597FB072E16F4009407D077FD09D062
:102850000E940D1407FC05D03EF4909581959F4F82
:102860000895709561957F4F0895A1E21A2EAA1BD5
:10287000BB1BFD010DC0AA1FBB1FEE1FFF1FA21730
:10288000B307E407F50720F0A21BB30BE40BF50B2D
:10289000661F771F881F991F1A9469F760957095B6
:1028A000809590959B01AC01BD01CF010895052E47
:1028B00097FB16F4009407D057FD0DD00E943514F5
:1028C00007FC09D07EF490958095709561957F4FB7
:1028D0008F4F9F4F089550954095309521953F4FCC
:1028E0004F4F5F4F0895689401C0E8948F929F9274
:1028F000CF93DF930E948114DF91CF919F908F90AF
:10290000089588249924F401E401B0E49F93AA2750
:102910009A158B049C04ED05FE05CF05D007A10791
:1029200098F4AD2FDC2FCF2FFE2FE92D982C892E78
:10293000982F872F762F652F542F432F322F222742
:10294000B85031F7BF9127C01B2EBF91BB27220F74
:10295000331F441F551F661F771F881F991F881C30
:10296000991CEE1FFF1FCC1FDD1FAA1FBB1F8A145F
:102970009B04EC05FD05CE05DF05A007B10748F077
:102980008A189B08EC09FD09CE09DF09A00BB10BE1
:1029900021601A94E1F62EF49401AF01BE01CD013D
:1029A000000C08950F930F7351F0220F331F441F33
:1029B000551F661F771F881F991F0A95B1F70F9142
:1029C00008952A0D3B1D4C1D5D1D6E1D7F1D801F32
:1029D000911F08950790F691E02D0994FB01DC0109
:1029E00004C08D910190801921F441505040C8F7E6
:1029F000881B990B0895F999FECF92BD81BDF89A75
:102A0000992780B50895262FF999FECF1FBA92BD58
:102A100081BD20BD0FB6F894FA9AF99A0FBE0196BF
:062A20000895F894FFCFB9
:102A26000000EE0B20000100000001436F6E666996
:102A36006775726163696F6E5F4F4B00436F6E66B9
:102A4600696775726163696F6E5F4E4F545F4F4B76
:062A560000370505370002
:00000001FF
